:020000040800F2
:10000000480F0020290200089D09000899070008F0
:1000100099090008110500086B160008000000008F
:10002000000000000000000000000000A10F000818
:10003000B906000800000000570E00084102000841
:10004000430200084302000843020008430200087C
:10005000430200084302000843020008430200086C
:10006000430200084302000843020008430200085C
:10007000430200084302000843020008430200084C
:100080004302000843020008E90300084302000895
:10009000430200084302000843020008430200082C
:1000A000430200084302000843020008430200081C
:1000B00043020008891100084302000843020008B7
:1000C00043020008430200084302000843020008FC
:1000D000430200084D1400084302000843020008D0
:1000E00043020008430200084302000843020008DC
:1000F00043020008430200084302000843020008CC
:1001000043020008430200084302000843020008BB
:1001100043020008430200084302000843020008AB
:1001200015050008430200084302000843020008C6
:10013000430200084302000843020008430200088B
:10014000430200084302000843020008430200087B
:10015000430200084302000843020008430200086B
:10016000430200084302000843020008430200085B
:10017000430200084302000843020008430200084B
:10018000430200084302000800F002F800F03CF8C7
:100190000AA090E8000C82448344AAF10107DA45E2
:1001A00001D100F031F8AFF2090EBAE80F0013F0F8
:1001B000010F18BFFB1A43F001031847A0300000DD
:1001C000C0300000103A24BF78C878C1FAD852076E
:1001D00024BF30C830C144BF04680C6070470000C1
:1001E0000023002400250026103A28BF78C1FBD840
:1001F000520728BF30C148BF0B6070471FB501F0E0
:1002000047FC1FBD10B510BD00F07CF81146FFF78C
:10021000F5FF01F07FFB00F09AF803B4FFF7F2FF5F
:1002200003BC01F050FA0000094880470948004724
:10023000FEE7FEE7FEE7FEE7FEE7FEE7FEE7FEE796
:10024000FEE7FEE704480549054A064B70470000F3
:10025000B91000088901000848090020480F002053
:10026000480B0020480B002070474FF00002042983
:10027000C0F0128010F0030C00F01F80CCF1040CD1
:10028000BCF1020F18BF00F8012BA8BF20F8022B09
:10029000A1EB0C0100F011B85FEAC17C24BF00F8AB
:1002A000012B00F8012B48BF00F8012B7047704765
:1002B0007047704770474FF0000200B513469446F0
:1002C0009646203922BFA0E80C50A0E80C50B1F1AE
:1002D0002001BFF4F7AF090728BFA0E80C5048BFC2
:1002E0000CC05DF804EB890028BF40F8042B08BF60
:1002F000704748BF20F8022B11F0804F18BF00F85C
:10030000012B7047754600F029F8AE460500694696
:10031000534620F00700854618B020B5FFF792FF3E
:10032000BDE820404FF000064FF000074FF00008F6
:100330004FF0000B21F00701AC46ACE8C009ACE877
:10034000C009ACE8C009ACE8C0098D467047044656
:10035000AFF300802046FFF760FF000000487047C1
:10036000E408002000220A12D3430360704721B141
:10037000826842F00102826003E0826822F001029A
:10038000826070470021084A1168084A1140D0E98C
:1003900000231A4383681A43C3681A431143044A6B
:1003A000C2F804137047000004230140E030FCFF52
:1003B0000020014021B1826842F48072826003E033
:1003C000826822F480728260704721B1826842F4B0
:1003D0000072826003E0826822F4007282607047DB
:1003E0000146C86C80B2704710B50548FFF7F8FFAA
:1003F000044640F205210248FFF7B4FF10BD00009B
:100400000020014030B50246002000235068104C07
:1004100020400D790C6844EA052420435060906820
:100420000C4C2040D1E903542C438D682C434D796A
:1004300044EA450420439060D06A20F470000C7DAB
:10044000641EE4B2234340EA0350D06230BD000092
:10045000FFFEFFFCFDF7FFC0F0B504460D4600208F
:100460000021092D11DDE068A5F10A0606EB46071B
:10047000072606FA07F18843A5F10A0606EB4606A9
:1004800003FA06F10843E0600CE0206905EB45073C
:10049000072606FA07F1884305EB450603FA06F13D
:1004A00008432061072A0FDA606B561E06EB8607A9
:1004B0001F2606FA07F18843561E06EB860605FA44
:1004C00006F10843606322E00D2A0FDA206BD61F85
:1004D00006EB86071F2606FA07F18843D61F06EBB0
:1004E000860605FA06F10843206310E0E06AA2F1EF
:1004F0000D0606EB86071F2606FA07F18843A2F1D0
:100500000D0606EB860605FA06F10843E062F0BD2B
:1005100000BFFEE710B500240449054800F050F87C
:1005200018B10249024800F005F810BD2080001003
:10053000106402400246094B9A4201D2084801E089
:100540000648103801F000531BB1064B0B40C36046
:1005500002E0044B0B4083607047000010640240CF
:10056000006002407D0F7D0F21B1026842F0010260
:10057000026003E0026822F001020260704721B1CC
:10058000026842F48022026003E0026822F48022C2
:100590000260704722B1036843F40023036003E064
:1005A000036823F4002303600161704701460020C3
:1005B0000A6802F400220AB1012000E0002070471E
:1005C00070B50246002000240025124EB24201D22E
:1005D000114B01E00F4B103B104E0E4036B11E2662
:1005E00006EAD124166806EA040502E0566906F018
:1005F000800501F000560EB15C6800E01C68084EF2
:10060000344004EA010616B10DB1012000E00020DB
:1006100070BD000010640240006002403C0F3C0FBF
:100620007D0F7D0F10B501F080034BB122B14369FE
:1006300043F08003436103E0436923F08003436197
:1006400080290BD02AB1036801F01E042343036004
:1006500004E0036801F01E04A343036010BD000022
:1006600010B500220268134B1A40CC680B68234374
:100670004C6923438C692343CC6923430C6A23438D
:100680004C6A23438C6A23434C6B23438C6B234378
:100690001A430260426922F00702D1E90B34234376
:1006A0001A4342610B6943604B6883608B68C36087
:1006B00010BD00003F801CF07047F0B50A460021D5
:1006C0000023002400BF3DE0012505FA01F3156871
:1006D00005EA03049C4234D105684F000326BE405E
:1006E000B543056015794E00B54006683543056091
:1006F0001579012D02D01579022D16D185684F008C
:100700000326BE40B543856055794E00B5408668E6
:1007100035438560456801268E40B5434560456890
:1007200096798E40B6B235434560C5684F000326C2
:10073000BE40B543C560D5794E00B540C668354367
:10074000C560491C1029BFD3F0BDF0B500230024BB
:100750004D07ED0E02FA05F3CE1000F1200555F815
:1007600026504E07F70E0F26BE40B543CF1000F1BE
:10077000200646F82750CE1000F1200555F82650E7
:1007800045EA0304CE1000F1200545F82640F0BDEF
:10079000418370470183704700BFFEE71CB501210C
:1007A000022000F059FB4FF44060009001208DF8CA
:1007B000040000208DF8060003208DF805000120BC
:1007C0008DF8070069460548FFF777FF01200449C7
:1007D00008600449C1F8AC021CBD000000040240DE
:1007E000A88240420080404270B504461348006829
:1007F00020F44000114908600846006840F4800079
:10080000086000200E490860002513E0E0090C494B
:10081000091D08606006040E012001F02FF8012078
:100820000849C1F8A80201F029F80020044908602D
:10083000681CC5B2082DE9DB70BD00000004024051
:10084000A88240420080404210B50F48006820F462
:1008500040000D4908600846006840F480000860C8
:1008600001200A4908600A49C1F8A802042001F0E1
:1008700005F8002005490860042000F0FFFF002073
:100880000349C1F8A80210BD00040240AC824042F6
:100890000080404210B50F48006820F440000D4928
:1008A00008600846006840F48000086000200A499B
:1008B00008600A49C1F8AC02042000F0DFFF012003
:1008C000054908600549C1F8AC02042000F0D6FFD4
:1008D00010BD000000040240A88240420080404257
:1008E00010B500241348006820F440001149086046
:1008F00008460068086001200F49086000F0BEFF4C
:1009000001200E49C1F8A80200F0B8FF07E0601C02
:10091000C4B2FA2C03DDFFF7BDFF012010BD06486D
:10092000803800680028F2D10349091F086000BF21
:10093000F4E7000000040240AC82404200804042E4
:100940001CB50121032000F087FA4FF4004000900D
:1009500001208DF8040000208DF8060003208DF89A
:10096000050001208DF8070069460948FFF7A5FE3C
:100970001020009069460748FFF79FFE4FF4604142
:100980000348FFF705FF10210248FFF701FF1CBDD8
:10099000000002400004024000BFFEE77047000074
:1009A00070B5002100230F22C4781CB3174C2468B3
:1009B00004F4E064C4F5E064C4F30721C1F1040465
:1009C000E3B20A4144789C40E1B284781440214368
:1009D0000C07210E0E4C05786155047804F01F05B4
:1009E0000124AC4005786D11AD0005F1E025C5F896
:1009F000004109E0047804F01F050124AC40054DD6
:100A00000678761145F8264070BD00000CED00E038
:100A100000E400E080E100E010B54FF4806103489D
:100A2000FFF723FC00F0E4F810BD00001C000020DC
:100A300010B500218D2000F002FA0021142000F0F2
:100A4000FEF90021AF2000F0FAF910BDF0B5144610
:100A500000267F2801DC3F2900DDF0BD0B46CF17C3
:100A600001EB5777C7F3C702CF1701EB5777FF109A
:100A7000A1EBC707FDB20123AB40DEB24CB10A4B7C
:100A800003EBC0039B5C3343074F07EBC007BB542A
:100A900008E0054B03EBC0039B5CB343024F07EB3D
:100AA000C007BB5400BFD8E71C0000201CB50121C3
:100AB000062000F0D1F94FF44060009001208DF83D
:100AC000040002208DF8050000208DF8060069461C
:100AD0004548FFF7F2FD2020009069464348FFF7A4
:100AE000ECFDFFF75BFE20214048FFF751FEC820D8
:100AF00000F0A8FE20213D48FFF74CFE4FF4FA70AD
:100B000000F0A0FE0021AE2000F099F90021084677
:100B100000F095F90021102000F091F9002140200B
:100B200000F08DF90021B02000F089F9002181202A
:100B300000F085F90021FF2000F081F90021A120BB
:100B400000F07DF90021A62000F079F90021A8200D
:100B500000F075F900213F2000F071F90021C82054
:100B600000F06DF90021D32000F069F9002108465A
:100B700000F065F90021D52000F061F90021802006
:100B800000F05DF90021D82000F059F9002105207E
:100B900000F055F90021D92000F051F90021F12091
:100BA00000F04DF90021DA2000F049F9002112206F
:100BB00000F045F90021DB2000F041F90021302050
:100BC00000F03DF900218D2000F039F900211420BA
:100BD00000F035F90021AF2000F031F9FFF728FFD0
:100BE000FFF71AFF1CBD000000040240000802408D
:100BF00070B500241BE004F1B000002100F01FF9E3
:100C00000021084600F01BF90021102000F017F920
:100C1000002508E0074901EBC501085D012100F04E
:100C20000EF9681CC5B2802DF4DB601CC4B2082C20
:100C3000E1DB70BD1C0000202DE9F84F80460F4617
:100C400016461C46BA462046E31704EB5373DB10E6
:100C500021464FEAE47C04EB5C7C4FEAEC0CA4EB0D
:100C6000CC0CBCF1000F02D04FF0010C01E04FF0B2
:100C7000000C6344224604EBD27C4FEA6C0C03FB6D
:100C80000CF303F0FF0BA6F12000C6B200254EE0E6
:100C90000C2C07D106EB4600274901EB8000405D94
:100CA000009013E0102C05D1244800EB0610405DA5
:100CB00000900BE0182C07D106EBC600204901EB91
:100CC0008000405D009001E0BDE8F88F4FF0000922
:100CD00027E0009800F0800028B1394640460A9A83
:100CE000FFF7B4FE09E00A9808B9012000E00020EF
:100CF000024639464046FFF7A9FE00984006000E1E
:100D00000090781CC7B2A7EB0A00A04205D1574655
:100D100008F1010000F0FF0806E009F1010000F011
:100D2000FF09B9F1080FD4DB00BF681CC5B25D45EF
:100D3000AEDB00BFC8E700009A1A00080E1F0008CB
:100D4000FE2400082DE9FF4F81B0074691461E465C
:100D50000E9D4FF0000A002439E0301B401EC1B246
:100D60000A2000F033FEB9FBF0F00A21B0FBF1F2EB
:100D700001FB1208BAF1000F16D1701EA04213DD5C
:100D8000B8F1000F0ED10120AB4605EBDB71491025
:100D900001FB04710090C8B22B4620220299FFF794
:100DA0004BFF12E04FF0010A0120AB4605EBDB716F
:100DB000491001FB04710090C8B208F13001CAB2B9
:100DC0002B460299FFF738FF00BF601CC4B2B44243
:100DD000C3DBFFF70DFF05B0BDE8F08FF8B50646A1
:100DE0000F4615461C4621E004EBD4714910C1F1B1
:100DF0008001B14202DA00263819C7B2C4F14000BE
:100E0000B84204DA002006460746FFF705FE012037
:100E100000902A78234639463046FFF70DFF2046DA
:100E200004EBD07106EB6101CEB26D1C28787E28F0
:100E300002DC28782028D7DAFFF7DAFEF8BD70B593
:100E400004460D461DB1E0B200F027FC02E0E0B21E
:100E500000F00DFC70BD704729B1064A12680243CC
:100E6000044B1A6004E0034A12688243014B1A6083
:100E7000704700003038024029B1064A1268024328
:100E8000044B1A6004E0034A12688243014B1A6063
:100E9000704700004038024029B1064A12680243F8
:100EA000044B1A6004E0034A12688243014B1A6043
:100EB0007047000044380240F0B5002100220024B1
:100EC000022500260223324F3F6807F00C0121B1B2
:100ED000042905D0082937D105E02E4F076036E0F8
:100EE0002D4F076033E02A4F3F1F3F68C7F38056FE
:100EF000274F3F1F3F6807F03F036EB1264FB7FBF8
:100F0000F3F7DFF88CC0ACF1040CDCF800C0CCF3D4
:100F1000881C07FB0CF40CE01E4FB7FBF3F7DFF85F
:100F200070C0ACF1040CDCF800C0CCF3881C07FBEB
:100F30000CF4174F3F1F3F68C7F301477F1C7D002C
:100F4000B4FBF5F7076002E0124F076000BF00BF77
:100F50000F4F3F6807F0F0010909104F7A5C0768EE
:100F6000D74047600A4F3F6807F4E051890A0B4FAA
:100F70007A5C4768D7408760054F3F6807F4604157
:100F8000490B064F7A5C4768D740C760F0BD000048
:100F9000083802400024F40000127A000A00002001
:100FA000704700000CB500200190009034480068A4
:100FB00040F480303249086000BF3148006800F4D6
:100FC000003000900198401C0190009818B90198D9
:100FD000B0F5A04FF1D12A48006800F4003010B1FC
:100FE0000120009001E0002000900098012846D1E7
:100FF00023484030006840F080502149403108606B
:101000002048006840F440401E4908601C480830F1
:1010100000681B49083108600846006840F4004039
:1010200008600846006840F4A05008601648091F90
:101030000860081F006840F08070091F086000BF4A
:101040000F48006800F000700028F9D040F20570E9
:101050000E4908600A480830006820F0030008497B
:10106000083108600846006840F00200086000BFD0
:1010700003480830006800F00C000828F8D10CBDC7
:10108000003802400070004019544007003C024004
:10109000042808D14FF0E021096941F004014FF024
:1010A000E022116107E04FF0E021096921F004011D
:1010B0004FF0E0221161704710B51548006840F408
:1010C0007000134908601348006840F0010011499E
:1010D000086000200F49083108600E4800680E497A
:1010E00008400C4908600D48091D0860081F006889
:1010F00020F48020091F0860002006490C31086098
:10110000FFF750FF4FF0006001498039086010BDC3
:1011100088ED00E000380240FFFFF6FE10300024AA
:1011200000B589B001210846FFF7A6FE00214FF067
:10113000804000F088F806A800F07EF9182007909B
:101140005320ADF818000020ADF82000ADF81A00CB
:1011500006A94FF0804000F02DF96020ADF80400A2
:101160000120ADF806000798400803900220ADF872
:10117000100001A9400700F0CBF80121880700F01A
:1011800062F809B000BD000010B50121074800F069
:1011900066F8012805D106480068C0430549C1F832
:1011A000BC020121014800F04BF810BD00040040D2
:1011B000BC0240420000404230B589B005460C46B2
:1011C00001210220FFF758FE0795ADF818400020D6
:1011D000ADF81A00ADF8200006A9184800F0EAF8AA
:1011E0006020ADF800000120ADF80200079840082B
:1011F00002900220ADF80C006946104800F04AF851
:1012000001210E4800F01FF8012211460B4800F0A2
:1012100037F80121094800F016F81D208DF8140058
:1012200001208DF8150003208DF8160001208DF89F
:10123000170005A8FFF7B4FB09B030BD000400405B
:10124000CA430282704721B1028842F00102028043
:1012500004E002884FF6FE731A400280704730B5F2
:101260000246002000230024158A05EA010395891F
:1012700005EA010413B10CB1012000E0002030BDEB
:101280001AB183890B43838102E083898B43838175
:101290007047000070B5002400220023058C4FF633
:1012A000FE7635400584028C8388048B4FF68F755B
:1012B0002C40B51E2C400D882C43751E2A408D896C
:1012C0002A434D882A43104DA84202D00F4DA84210
:1012D00013D14FF6F7752A40CD892A434FF6FB7597
:1012E0002A408D882A434FF6FF652B404FF6FF5565
:1012F0002B400D8A2B434D8A2B43838004838D68BA
:101300004563028470BD00000000014000040140FC
:1013100070B5002400220023058C4FF6EF7635408F
:101320000584028C8388048B48F6FF752C404FF6A9
:10133000FF452C400D884FF6FF7606EA05252C4325
:101340004FF6DF752A408D8906EA05152A434D8838
:1013500006EA05152A43154DA84202D0144DA842AD
:101360001DD14FF67F752A40CD894FF6FF7606EAEC
:1013700005152A434FF6BF752A408D8806EA0515E4
:101380002A434FF6FF352B404FF2FF752B400D8A55
:1013900006EA85052B434D8A06EA85052B438380A3
:1013A00004838D688563028470BD000000000140E5
:1013B0000004014000220288184B98420ED0184BBE
:1013C00098420BD0B0F1804F08D0164B984205D010
:1013D000154B984202D0154B984204D14FF68F73AB
:1013E0001A404B881A43124B984207D0114B98422F
:1013F00004D04FF6FF431A400B891A4302804B6812
:10140000C3620B880385054B984202D0044B984277
:1014100001D18B7A0386012383827047000001404B
:10142000000401400004004000080040000C00409F
:1014300000100040001400404FF0FF3141600021D7
:1014400001800181418081727047000010B540F237
:1014500025511D4800F04AF810B31B4800F000F970
:10146000C4B21A48008800F40040C8B91748008880
:1014700000F4804060B10A2C03D00020134908809A
:1014800020E01248008840F400401049088019E02C
:101490000D2C06D10D48008840F480400B4908808F
:1014A00010E00A480088C0F30D0009490C540748B1
:1014B0000088401C0549088008460088C72801DDCF
:1014C0000020088010BD000000100140080000202E
:1014D0001C08002021B1828942F40052828104E07C
:1014E00082894DF6FF731A408281704770B50246BB
:1014F000002400230025002040F66A16B14200D1E6
:1015000000BFC1F3421501F01F03012606FA03F3E1
:10151000012D02D19689334006E0022D02D1168AB0
:10152000334001E0968A33400C12012606FA04F497
:101530001688344013B10CB1012000E0002070BDCA
:10154000F0B50346002400260025002040F66A1767
:10155000B94200D100BF1846C1F3421401F01F0682
:10156000012707FA06F5012C01D10C3004E0022C0A
:1015700001D1103000E014301AB107682F43076022
:1015800002E00768AF430760F0BD00002DE9FF47A8
:1015900005460E460024A14600BFA046B08900B112
:1015A00000BF2C8A24F44054F08804432C82AC8978
:1015B00041F20C608443B088318908437189084343
:1015C0000443AC81AC8A24F44074B0890443AC82F7
:1015D0006846FFF771FC2048854202D01F488542CB
:1015E00002D1DDF80C9001E0DDF80890A88900F444
:1015F000004040B109EBC90000EB09103168490017
:10160000B0FBF1F707E009EBC90000EB0910316806
:101610008900B0FBF1F76420B7FBF0F0040120096A
:10162000642101FB1078A88900F4004040B1322009
:1016300000EBC800B0FBF1F000F00700044308E045
:10164000322000EB08106421B0FBF1F000F00F0035
:1016500004432C81BDE8FF870010014000140140C5
:1016600001468888C0F30800704700BFFEE710B548
:101670000446FFF7E9F87820FFF7B6F8FFF730F9EE
:101680000020FFF7B1F8FFF72BF92046FFF7ACF881
:10169000FFF726F9FFF7FEF810BD10B50446FFF777
:1016A000D3F87820FFF7A0F8FFF71AF94020FFF7EA
:1016B0009BF8FFF715F92046FFF796F8FFF710F9AA
:1016C000FFF7E8F810BD00BF7047000000B59DB0FF
:1016D00001214748FFF7C0FB01218802FFF7DCFB2F
:1016E0004FF08060049043480590434806900020E6
:1016F00007904FF480700890002009904FF48060AC
:101700000A9040000B9080000C9040110D90400218
:101710000E9004200F900320109000201190129042
:1017200004A93648FEF79CFF002235493348FEF7EE
:1017300031FF01213148FEF722FF38208DF80400E7
:1017400003208DF805008DF8060001208DF80700B4
:1017500001A8FFF725F9012210212848FEF762FFB2
:1017600001212648FEF700FF0120029003208DF89A
:101770000C0000208DF80F0002A92248FEF79DFF03
:101780000020139014901590169013A8FEF7FAFD00
:10179000002017908DF860008DF861004FF08050A8
:1017A00019904FF040701A9000201B9001208DF886
:1017B000700017A90F484C38FEF724FE00230122C1
:1017C00019460C484C38FEF747FE012109484C38B1
:1017D000FEF7FBFD012107484C38FEF7EBFD012128
:1017E00004484C38FEF7C3FDFFF79AFC1DB000BD5E
:1017F000010040004C2201401C0400201064024003
:101800001C0600200000024010B504466FF00400E2
:10181000FFF73EFCE11704EB5171C1F3C701074A22
:1018200011701046007800EB4001C1EBC0104FF67C
:10183000FF7101EAC0000249088010BD00000020CD
:101840000200002070B504464FF4077094FBF0F0DE
:10185000C6B24FF4077094FBF0F100FB114085B263
:1018600005E04FF4077000F02FF8701EC6B2002E8E
:10187000F7D115B1284600F027F870BD0146114A8E
:1018800012784A434FF0E0235A6100229A611A46C7
:10189000126942F001021A6100BF4FF0E0221069A4
:1018A00000F001021AB100F48032002AF5D04FF0A6
:1018B000E022126922F001024FF0E0231A610022B7
:1018C0009A617047000000200146114A12884A437D
:1018D0004FF0E0235A6100229A611A46126942F0E1
:1018E00001021A6100BF4FF0E022106900F001020E
:1018F0001AB100F48032002AF5D04FF0E0221269CC
:1019000022F001024FF0E0231A6100229A61704731
:101910000200002008B5A820FFF776FF4FF4E13061
:1019200000F060F8FFF70CF8FFF7D0FEFFF7BEF805
:1019300042F2CF0141F28730FFF73EFC102319A29B
:1019400000210846FFF74AFA10231AA21946002080
:10195000FFF744FA24E01A48FEF728FEC6B25EB14B
:10196000002405E0174830F814000544601C84B2D8
:10197000FF2CF7DD2D0A0AE0002405E0124830F8BC
:1019800014000544601C84B2FF2CF7DD2D0A1020E2
:1019900004232A46014600904020FFF7D3F9002592
:1019A000D9E700002054696D65722041444320440A
:1019B0004D412000416476616C75653A000000007D
:1019C000106402401C0400201C06002010B50246D2
:1019D000012000E050430B00A1F10104E1B2F9D174
:1019E00010BD000010B588B0044601210846FFF77D
:1019F00033FA01211020FFF74FFA0722092122486C
:101A0000FEF7A3FE07220A211F48FEF79EFE4FF4B1
:101A1000C060069002208DF81C008DF81D0000208B
:101A20008DF81E0001208DF81F0006A91648FEF74C
:101A300044FE02940020ADF80C00ADF80E00ADF8A5
:101A40001000ADF814000C20ADF8120002A90F48E8
:101A5000FFF79CFD01210D48FFF73CFD012240F2FC
:101A600025510A48FFF76CFD25208DF8040003205E
:101A70008DF805008DF8060001208DF8070001A8FB
:101A8000FEF78EFF08B010BD0000024000100140BC
:101A90004FF04070E1EE100A7047000000000000B7
:101AA000000000000000000000003F4000000000B7
:101AB000000000003000400030004000000009003D
:101AC0000BC03D000BC03D00090018C024407FE062
:101AD000224031800000180024C01B000D803240DD
:101AE000018003801C4027401C80074000401000FC
:101AF0006000000000000000000000000000000086
:101B00001F80204040200000402020401F80000017
:101B10000000090006001F80060009000000040004
:101B200004003F800400040000000010006000007A
:101B30000000000000000400040004000400040091
:101B40000000000000400000000000000000002035
:101B500001C006003800400000001F8020402040E7
:101B600020401F800000000010403FC000400000E7
:101B7000000018C02140224024401840000010807E
:101B80002040244024401B80000002000D00110072
:101B90003FC0014000003C8024402440244023807A
:101BA00000001F80244024403440038000003000A7
:101BB000200027C03800200000001B802440244063
:101BC00024401B8000001C0022C0224022401F80B5
:101BD00000000000000008400000000000000000BD
:101BE00000000460000000000000000004000A0083
:101BF0001100208040400900090009000900090087
:101C0000000000004040208011000A00040018007D
:101C1000200023402400180000001F80204027409F
:101C200029401F400000004007C039000F0001C0DC
:101C3000004020403FC0244024401B8000001F8003
:101C40002040204020403080000020403FC0204005
:101C500020401F80000020403FC024402E4030C064
:101C6000000020403FC024402E00300000000F0044
:101C70001080204022403380020020403FC00400FA
:101C800004003FC02040204020403FC02040204072
:101C900000000060202020203FC0200020002040C5
:101CA0003FC024400B0030C0204020403FC02040B7
:101CB0000040004000C03FC03C0003C03C003FC0AB
:101CC000000020403FC00C4023003FC020001F8088
:101CD0002040204020401F80000020403FC0244082
:101CE0002400180000001F802140214020E01FA098
:101CF000000020403FC02440260019C0004018C00A
:101D000024402440224031800000300020403FC069
:101D100020403000000020003F80004000403F8015
:101D2000200020003E0001C00700380020003800DD
:101D300007C03C0007C038000000204039C0060042
:101D400039C0204000002000384007C03840200043
:101D50000000304021C02640384020C00000000074
:101D600000007FE0402040200000000070000C00D8
:101D70000380004000000000402040207FE0000081
:101D800000000000200040002000000000000010C3
:101D900000100010001000100010000000004000B3
:101DA000000000000000000002800540054003C064
:101DB000004020003FC004400440038000000000B9
:101DC00003800440044006400000000003800440FB
:101DD00024403FC000400000038005400540034010
:101DE0000000000004401FC02440244020000000E8
:101DF00002E0055005500650042020403FC004403A
:101E0000040003C000400000044027C00040000060
:101E1000000000100010041027E000000000204027
:101E20003FC00140070004C00440204020403FC0A4
:101E300000400040000007C0040007C0040003C0C9
:101E40000000044007C00440040003C0004000003C
:101E500003800440044003800000041007F0045095
:101E6000044003800000000003800440045007F099
:101E70000010044007C002400400040000000000FD
:101E800006400540054004C00000000004001F801B
:101E9000044000400000040007800040044007C0E8
:101EA00000400400070004C0018006000400060092
:101EB00001C0070001C006000000044006C0010088
:101EC00006C0044000000410071004E00180060072
:101ED00004000000044005C006400440000000006B
:101EE000000004007BE04020000000000000000033
:101EF000FFF000000000000040207BE00400000034
:101F00000000400080004000200020004000000051
:101F100000000000000000000000000000000000C1
:101F2000000000001FCC000C0000000000000000BA
:101F3000080030006000080030006000000002204F
:101F400003FC1E20022003FC1E20022000000000D3
:101F50000E1811043FFF10840C78000000000F00E1
:101F600010840F3800C007781884007800000078CB
:101F70000F8410C411240E9800E4008400080800A7
:101F80006800700000000000000000000000000079
:101F90000000000007E018182004400200000000C4
:101FA00040022004181807E0000000000000024072
:101FB000024001800FF001800240024000000080DA
:101FC000008000800FF80080008000800000000189
:101FD000000D000E000000000000000000000000E6
:101FE0000080008000800080008000800080000071
:101FF000000C000C000000000000000000000000C9
:102000000006001800600180060018002000000093
:1020100007F0080810041004080807F0000000008A
:10202000080408041FFC0004000400000000000075
:102030000E0C10141024104411840E0C000000002B
:102040000C1810041104110412880C700000000018
:1020500000E00320042408241FFC002400000000EA
:102060001F981084110411041088107000000000E3
:1020700007F008881104110418880070000000009F
:102080001C00100010FC13001C00100000000000D9
:102090000E3811441084108411440E3800000000E2
:1020A0000700088C10441044088807F00000000066
:1020B00000000000030C030C000000000000000002
:1020C0000000000101060000000000000000000008
:1020D00000800140022004100808100400000220C3
:1020E0000220022002200220022002200000000024
:1020F00010040808041002200140008000000000C5
:102100000E001200100C106C10800F00000003E095
:102110000C1813E4142417C4082807D00000000486
:10212000003C03C41C40074000E4001C00041004F1
:102130001FFC1104110411040E880070000003E05C
:102140000C1810041004100410081C1000001004D7
:102150001FFC100410041004080807F0000010040D
:102160001FFC1104110417C4100408180000100407
:102170001FFC1104110017C010000800000003E04C
:102180000C181004100410441C78004000001004C7
:102190001FFC10840080008010841FFC10040000CD
:1021A000100410041FFC10041004000000000003C1
:1021B0000001100110011FFE1000100000001004AB
:1021C0001FFC110403801464181C10040000100488
:1021D0001FFC1004000400040004000C00001004A4
:1021E0001FFC1F0000FC1F001FFC10040000100457
:1021F0001FFC0C04030000E010181FFC100007F087
:102200000808100410041004080807F00000100467
:102210001FFC10841080108010800F00000007F059
:10222000081810241024101C080A07F200001004DB
:102230001FFC1104110011C011300E0C000400002D
:102240000E1C11041084108410441C380000180067
:10225000100010041FFC10041000180000001000F3
:102260001FF810040004000410041FF810001000F0
:102270001E0011E0001C007013801C0010001FC025
:10228000103C00E01F0000E0103C1FC000001004E4
:10229000180C163401C001C01634180C10041000BC
:1022A0001C00130400FC13041C00100000000804B0
:1022B000101C1064108413041C041018000000008B
:1022C000000000007FFE40024002400200000000CB
:1022D00030000C0003800060001C000300000000C0
:1022E0004002400240027FFE0000000000000000AB
:1022F00000002000400040004000200000000001DD
:1023000000010001000100010001000100010000C6
:10231000400040002000000000000000000000001D
:102320000098012401440144014400FC0004100011
:102330001FFC0088010401040088007000000000F8
:1023400000700088010401040104008800000000FE
:10235000007000880104010411081FFC0004000043
:1023600000F8014401440144014400C80000000099
:10237000010401040FFC11041104110018000000F5
:1023800000D601290129012901C901060000100414
:102390001FFC008401000100010400FC0004000097
:1023A0000104190419FC00040004000000000000EE
:1023B000000300010101190119FE000000001004D2
:1023C0001FFC0024004001B4010C010400000000C7
:1023D000100410041FFC00040004000000000104AD
:1023E00001FC0104010001FC0104010000FC0104E6
:1023F00001FC008401000100010400FC0004000055
:1024000000F8010401040104010400F800000101C6
:1024100001FF008501040104008800700000000035
:102420000070008801040104010501FF000101049E
:10243000010401FC0084010401000180000000008F
:1024400000CC012401240124012401980000000093
:102450000100010007F80104010400000000010070
:1024600001F8000400040004010801FC000401005C
:1024700001800170000C001001600180010001F07A
:10248000010C003001C00030010C01F0010000001F
:102490000104018C00740170018C01040000010131
:1024A00001810171000E001801600180010000002F
:1024B0000184010C013401440184010C000000007E
:1024C00000000000000001003EFC4002400200004D
:1024D000000000000000FFFF0000000000000000FE
:1024E000400240023EFC010000000000000000002D
:1024F00060008000800040004000200020000000BC
:1025000000000000000000000000000000000000CB
:1025100000000000000000000000000000000000BB
:1025200000000000000000000000000000000000AB
:10253000000F80380FFE380F8038000000000000C8
:102540000000000000000000000000000100000684
:1025500000000C00003800003100000600000C00F4
:102560000038000030000000000000000000618022
:102570000067F807F98000618000618000618000D9
:1025800061800067F807F9800061800000000000AA
:102590000000000001C0E003E0F006300804180865
:1025A0001FFFFE040E080787F00381E00000000013
:1025B000000001F000060C00040408060C7001F98C
:1025C000C0000E00003BE000EC18070808040C18DF
:1025D0000003E00000000001E00007F003F8180429
:1025E0001C0804170807E1D003C0E00023B0003C3A
:1025F000080020080000100000000000000100009A
:102600003100003200001C0000000000000000004B
:1026100000000000000000000000000000000000BA
:1026200000000000000000000000000000007F002B
:1026300001FFC00780F00C00181000042000020009
:1026400000000000002000021000040C00180780A9
:10265000F001FFC0007F000000000000000000004B
:1026600000000000000000000000420000660000C2
:102670006600003C0000180003FFC0001800003C8A
:102680000000660000660000420000000000080034
:1026900000080000080000080000080001FFC0005A
:1026A0000800000800000800000800000800000002
:1026B0000000000100003100003200001C0000009A
:1026C000000000000000000000000000000000000A
:1026D00000000000000008000008000008000008DA
:1026E00000000800000800000800000800000800C2
:1026F000000800000000000000000000000038009A
:102700000038000038000000000000000000000059
:1027100000000000000000000000000000000006B3
:1027200000001C000070000180000E000038000056
:10273000C0000700001C0000300000000000000086
:1027400000007F8001FFE00380700600180400088D
:1027500004000806001803807001FFE0007F80007D
:102760000000000000000000010008010008010056
:102770000803FFF807FFF800000800000800000841
:1027800000000000000000000001C03802C0580432
:102790000098040118040218040418061C1803F811
:1027A0001801E0F800000000000000000001C0E097
:1027B00003C0F00400080408080408080618080309
:1027C000F41801E7F00001E0000000000000000044
:1027D00000000300000D00001100006100008108EE
:1027E00003010807FFF80FFFF800010800010800C7
:1027F00000000000000000E007FCD00608080610FA
:1028000008061008061008061838060FF00607C05C
:10281000000000000000000000003F8001FFE00316
:10282000843002081804100804100804100807185F
:1028300010030FF00007C0000000000000000000BF
:1028400003C0000700000600000600F80607F806AF
:10285000180006E00007000006000000000000006D
:102860000001E1E003F7F00634100418080418082A
:10287000040C08040C0806161803F3F001C1E0006C
:10288000000000000000F80003FC300306380402DA
:10289000080402080402080404100308F001FFC041
:1028A000007F0000000000000000000000000000A9
:1028B0000000000000007038007038007038000020
:1028C0000000000000000000000000000000000008
:1028D00000000000000000000000301A00301C0062
:1028E00000000000000000000000000000000000E8
:1028F0000000000000080000140000220000410059
:102900000080800100400200200400100800080040
:102910000000000000002100002100002100002133
:102920000000210000210000210000210000210002
:102930000021000000000000000000000800080462
:1029400000100200200100400080800041000022B1
:102950000000140000080000000000000003C00098
:1029600004C000040000080038080F3808083808C0
:1029700010000C300007E00003C000000000000061
:1029800000003F8000FFE0038070020F1006708897
:1029900004C088048308047F8802C09003012000DB
:1029A000FE400000080000180001F8003E0801C2C7
:1029B0000007020007E20000FE00001FC80001F847
:1029C00000003800000804000807FFF807FFF804BB
:1029D000080804080804080804080806180803F48E
:1029E0001801E7F00001E0000000000000003F8057
:1029F00001FFE003807002001804000804000804CE
:102A000000080400100600200780C0000000040039
:102A10000807FFF807FFF80400080400080400088E
:102A200004001802001003807001FFE0007F8000A6
:102A3000000004000807FFF807FFF804080804086E
:102A400008040808040808043E08040008060018E2
:102A500001006000000004000807FFF807FFF80409
:102A60000808040800040800040800043E000600EA
:102A700000060000018000000000000000003F8010
:102A800001FFE00380700600180400080402080437
:102A900002080203F00783F00002000002000400B5
:102AA0000807FFF807FFF8040808000800000800FE
:102AB00000080000080004080807FFF807FFF804F2
:102AC00000080000000000000400080400080400E2
:102AD0000807FFF807FFF8040008040008040008CE
:102AE00000000000000000000000000600000700D9
:102AF000000104000104000104000307FFFE07FFBA
:102B0000FC04000004000004000004000807FFF8B3
:102B100007FFF8040C08001800003E0004C78005F9
:102B200003C80600F8040038040018000008040078
:102B30000807FFF807FFF804000800000800000875
:102B400000000800000800000800001800006000F5
:102B5000000004000807FFF807800807FC00007F5A
:102B6000C00003F80007C000780007800807FFF8DE
:102B700007FFF804000804000807FFF8070008032F
:102B8000C00000E000003800001E00000700000147
:102B9000C00400F007FFF8040000000000007F8080
:102BA00001FFE00380700600180400080400080616
:102BB000001803003001FFE0007F800000000400E7
:102BC0000807FFF807FFF8040408040400040400E1
:102BD000040400040400060C0003F80001F00000E7
:102BE0000000000000007F8001FFE003807006000D
:102BF000880400880400C806003C03003E01FFE68C
:102C0000007F8400000004000807FFF807FFF804B5
:102C10000808040800040C00040F00040BC0061090
:102C2000F003F03801E00800000800000001E0F8BF
:102C300003F030063010041808041808040C0804C7
:102C40000C080206180207F00781E000000001806E
:102C50000006000004000004000004000807FFF85C
:102C600007FFF8040008040000040000060000014B
:102C7000800004000007FFE007FFF00400180000D8
:102C80000800000800000800000800000804001008
:102C900007FFE004000004000006000007E0000752
:102CA000FE00041FE00001F80000380001E0043ECF
:102CB0000007C00006000004000004000007E00058
:102CC00007FFC0041FF80007C007F80007FF8004D3
:102CD0003FF80007C004F8000700000400000000EF
:102CE0000004000806001807C07805F1C8003E007F
:102CF000001F800463E80780F8060018040008003D
:102D0000000004000006000007800007E008047CC3
:102D100008001FF80007F800180804E00807000082
:102D2000060000040000000000010008060038044E
:102D300000F80403E8040F08047C0805F00807C045
:102D400008070018040060000000000000000000F8
:102D50000000000000000000003FFFFE20000220F5
:102D600000022000022000022000020000000000FB
:102D70000000000008000007000000C0000038004C
:102D80000006000001C000003000000E000001003D
:102D900000000000000000002000022000022000CF
:102DA000022000022000023FFFFE000000000000A1
:102DB000000000000000000000000000000000080B
:102DC0000000100000300000200000300000100063
:102DD00000080000000000000000000001000001E9
:102DE00000000100000100000100000100000100DE
:102DF00000010000010000010000010000010000CE
:102E00000000000000000020000020000010000072
:102E100010000000000000000000000000000000A2
:102E200000000000000000F00019F8001B1800224C
:102E300008002608002408002410003FF8001FF8AE
:102E400000000800001800000004000007FFF80F51
:102E5000FFF00018180010080020080020080030BB
:102E600018001FF0000FC00000000000000007C0A5
:102E7000001FF00018300020080020080020080083
:102E80003C08001C10000060000000000000000072
:102E9000000007C0001FF0003818002008002008BC
:102EA00000200804101007FFF80FFFF000001000CA
:102EB00000000000000000000007C0001FF000122A
:102EC00030002218002208002208003208001E10DC
:102ED000000E20000000000000002000002008007C
:102EE000200801FFF803FFF806200804200804204A
:102EF0000807200003000000000000000000000E92
:102F0000000E6E001FF30031B10020B10020B100AF
:102F10003191001F13002E1E00200E003000000013
:102F20000004000807FFF80FFFF800100800200059
:102F3000002000002008003FF8001FF800000800F3
:102F40000000000000000000002008002008002011
:102F500008063FF8063FF8000008000008000008D7
:102F6000000000000000000000000000000003005E
:102F70000003002001002001002003063FFE063F61
:102F8000FC00000000000000000000000004000839
:102F900007FFF80FFFF8000188000300002FC000B2
:102FA00038F8002038002008000008000000000069
:102FB0000000000004000804000804000807FFF8EF
:102FC0000FFFF800000800000800000800000000E3
:102FD0000000002008003FF8003FF8001008002023
:102FE00000003FF8003FF8001008002000003FF804
:102FF000003FF8000008000000002008003FF80033
:103000003FF8001008001000002000002008003FDA
:10301000F8001FF80000080000000000000007C0D2
:10302000000FF000183000300800200800200800D1
:103030003008001830000FF00007C000000000004A
:1030400000002001003FFF003FFF00101100200999
:10305000002008002008003038001FF0000FC000DA
:1030600000000000000007C0001FF000381800201A
:1030700008002008002009001011001FFF003FFF7A
:1030800000000100000000200800200800200800C7
:103090003FF8003FF8000808001008002008002052
:1030A00000003000003000000000000000000000C0
:1030B000000C78001E1800330800230800210800C7
:1030C00021880021980030F00038600000000000E6
:1030D0000000200000200000200000FFF003FFF8A7
:1030E0000020080020080020080000300000000038
:1030F0000000000000002000003FF0007FF800000A
:1031000018000008000008002010003FF8007FF0C1
:10311000000010000000000000002000003000004F
:103120003C00003F800023F0000078000070002386
:1031300080003C00003000002000002000003C0027
:10314000003FE00023F80000E0002700003E000000
:103150003FE00021F80001E0003E000020000000F8
:1031600000002008002008003838003E6800278052
:103170000003C8002CF80038380020180020080090
:103180000000000000002000003003003C01003F70
:10319000830023EC000070002380003C000020002E
:1031A00000200000000000000000000000380800BF
:1031B00020380020F80023E8002F88003E0800385F
:1031C000080020180000700000000000000000004F
:1031D0000000000000000000000008000014001FB4
:1031E000F7FC300006200002000000000000000094
:1031F00000000000000000000000000000000000CF
:10320000FFFFFF00000000000000000000000000C1
:1032100000000000000000002000023000061FF740
:10322000FC00140000080000000000000000000086
:1032300000000000000000000018000060000040D6
:103240000000400000200000100000080000040002
:10325000000400000C000010000000007C32000898
:10326000000000201C000000C40100089832000883
:103270001C0000202C0F0000E001000800000000EE
:103280000000000000000000000001020304010231
:08329000030406070809000011
:040000050800018965
:00000001FF
