:020000040800F2
:1000000060320020710F0008A5030008A703000854
:10001000AB030008AF030008B303000800000000B2
:10002000000000000000000000000000B70300080E
:10003000B903000800000000BB030008BD0300086E
:100040008B0F00088B0F00088B0F00088B0F000828
:100050008B0F00088B0F00088B0F00088B0F000818
:100060008B0F00088B0F00088B0F0008370B000860
:100070008B0F00088B0F00088B0F00088B0F0008F8
:100080008B0F00088B0F00088B0F00088B0F0008E8
:100090008B0F00088B0F00088B0F00088B0F0008D8
:1000A0008B0F00088B0F00088B0F00088B0F0008C8
:1000B0008B0F0008330600088B0F00088B0F000819
:1000C0008B0F00088B0F00088B0F00088B0F0008A8
:1000D0008B0F0008E70E00088B0F00088B0F00083D
:1000E0008B0F00088B0F00088B0F00088B0F000888
:1000F0008B0F00088B0F00088B0F00088B0F000878
:100100008B0F00088B0F00088B0F00088B0F000867
:100110008B0F00088B0F00088B0F00088B0F000857
:100120008B0F00088B0F00088B0F00088B0F000847
:1001300000F002F800F03AF80AA090E8000C8244BF
:100140008344AAF10107DA4501D100F02FF8AFF29C
:10015000090EBAE80F0013F0010F18BFFB1A43F0A5
:10016000010318472C6500004C650000103A24BFBD
:1001700078C878C1FAD8520724BF30C830C144BF0C
:1001800004680C607047000000230024002500264E
:10019000103A28BF78C1FBD8520728BF30C148BFEA
:1001A0000B6070471FB51FBD10B510BD03F0ACFA52
:1001B0001146FFF7F7FF00F009F803F0CAFA03B49D
:1001C000FFF7F2FF03BC00F033FE0000D0B00024C4
:1001D00000BF402140A803F036FA402130A803F0C8
:1001E00032FA402120A803F02EFA402110A803F093
:1001F0002AFA4021684603F026FA00F0AFFD4FF4DA
:10020000A06001F049FF00F0CBF900F043FC00F0E2
:1002100044FA41F61F41FA2000F0DEF900205D4962
:1002200008705D4800F084FB4FF47A7000F0D3FD55
:100230004FF47A7000F0CFFD4FF47A7000F0CBFDF0
:100240002022402120A803F0F6F92022402130A8E6
:1002500003F0F1F92022402140A803F0ECF94FF41B
:1002600000514E4803F0EFF993E000BF00204949E8
:10027000087000F055FD002412E024B94848407889
:1002800040A9085503E04648005D40A9085540A82C
:10029000005D1F2802DD1F2040A90855601C84B2A4
:1002A000402CEADB00242EE040A8005D20A9095D77
:1002B00088420ADB40A90A5DE0B2002100F00BFB96
:1002C00040A8005D20A908551BE01DF80400401C53
:1002D000C0B20DF804001DF80400012811DD002053
:1002E0000DF8040020A8005D41B2002260B200F0C9
:1002F00061FA20A8005D20B120A8005D401E20A961
:100300000855601C84B2402CCEDB00243FE030A8AE
:10031000015D40A8005D401C814214DC30A8005DF6
:1003200041B2002260B200F045FA40A8005D401CD6
:1003300030A9085530A8005D41B24FF0FF1260B2FD
:1003400000F038FA21E010A8005D401C10A9085503
:1003500010A8005D062818DD0020085530A8005DB3
:1003600041B2002260B200F025FA30A8005D20B151
:1003700030A8005D401E30A9085530A8005D41B28C
:100380004FF0FF1260B200F015FA601C84B2402CEE
:10039000BDDB6AE700000020704D00083800002037
:1003A000382A0020704700BFFEE700BFFEE700BF0D
:1003B000FEE700BFFEE770477047704770470000D8
:1003C0000CB50020019000906C48006840F480302B
:1003D0006A49086000BF6948006800F40030009076
:1003E0000198401C0190009818B90198B0F5A06FD1
:1003F000F1D16248006800F4003010B10120009093
:1004000001E0002000900098012843D15C4800687A
:1004100040F010005A4908600846006820F00300C8
:1004200008600846006840F00200086053484068D1
:10043000524948600846406848600846406840F4B1
:10044000806048600846406820F47C104860084698
:10045000406840F4641048600846006840F08070CE
:10046000086000BF4548006800F000700028F9D01F
:100470004248406820F00300404948600846406810
:1004800040F00200486000BF3C48406800F00C00AB
:100490000828F9D10CBD10B5FFF792FF10BD10B5BB
:1004A0003648006840F0010034490860084640685A
:1004B00034490840314948600846006832490840DC
:1004C0002E4908600846006820F48020086008462D
:1004D000406820F4FE0048604FF41F008860FFF77A
:1004E000DAFF4FF000602949086010BD10B5002107
:1004F00000200022214B5B6803F00C0121B104298C
:1005000006D0082928D107E0214B224C236027E0A0
:100510001F4B204C236023E0184B5B6803F47010E2
:10052000164B5B6803F48032022303EB904022B940
:10053000194B4343174C23600DE0104B5B6803F4E9
:10054000003323B1144B4343124C236003E0104BA0
:100550004343104C236003E00D4B0E4C236000BF5F
:1005600000BF064B5B68C3F303130C4CE15C094B03
:100570001B68CB40074C236010BD000000100240F8
:10058000002002400000FFF8FFFFF6FE08ED00E04B
:1005900000127A000400002000093D00080000203D
:1005A00008B50121102001F00FFB4FF40050ADF809
:1005B000000010208DF8030003208DF8020069462A
:1005C000044801F045F84FF40051024801F0EDF8FD
:1005D00008BD0000001001407FB505460C46012112
:1005E000022001F0FEFAADF80850ADF804400020FA
:1005F000ADF80A00ADF8060001A9154801F08EFE1D
:1006000001221146124802F000FA1D208DF8000068
:1006100002208DF8010003208DF8020001208DF8E2
:100620000300684601F03DFD0121094802F0D2F9BE
:100630007FBD10B50121064802F095FC30B10121C3
:10064000034802F0A1FC034800F0E9F810BD0000E7
:10065000000400403800002008B501210C2001F002
:10066000B3FA10208DF8030003208DF802004FF438
:10067000F850ADF800006946C44800F0E9FF4DF2BB
:10068000E030ADF800006946C14800F0E1FF4FF4EA
:100690000041BF4801F08BF808BD10B5FFF7DCFF43
:1006A00010BD00F0010119B10021BA4A116002E049
:1006B0000121B84A116000F0020119B10121B64AC6
:1006C000116002E00021B44A116000F0040121B180
:1006D0000121B04A2432116003E00021AD4A2432E6
:1006E000116000F0080121B10121AB4A083A116004
:1006F00003E00021A84A083A1160704710B50123B1
:100700009340034023B10123A24C1034236003E043
:100710000023A04C1034236002F10803012404FAE2
:1007200003F3034023B101239B4C0834236003E00F
:100730000023994C0834236002F11003012404FAC9
:1007400003F3034023B10123924C0C34236003E0F4
:100750000023904C0C342360012393400B4023B1C1
:1007600001238C4C0834236003E00023894C0834B7
:10077000236002F10803012404FA03F30B4023B1C0
:100780000123854C241D236003E00023824C241D9B
:10079000236002F11003012404FA03F30B4023B198
:1007A00001237C4C241D236003E00023794C241D8D
:1007B000236010BDF0B50346084601EBD0777F10EB
:1007C000A1EB4707FEB216B1481E41B201E0481C3A
:1007D00041B2002B05DB002903DB402B01DC202983
:1007E00002DD4FF0FF30F0BD1C46C1F11F0045B2E5
:1007F000402000FB0540694F47F820200020F2E729
:100800000022644B28331A60002101E04A1C91B297
:100810008142FBDB01225F4B28331A6070472DE9D0
:10082000F04307460024A046A1460025002600BF4D
:100830003BE04FEA841804F110004FEA801920468B
:10084000FFF72FFF00262CE000205349091F086006
:10085000002514E009EB050257F8221008EB050209
:1008600057F822003246FFF749FF002049491C3162
:10087000086001204A49C1F8B001681CC5B2402D8A
:10088000E8DB01204449091F086000204549C1F800
:10089000A401454931F8261088B2FFF7B1FF701C5A
:1008A000C6B2082ED0DB601CC4B2102CC1DBBDE880
:1008B000F0832DE9F04105460E46174698462C4632
:1008C00005E0424679B260B2FFF774FF641CB4429F
:1008D000F7D3BDE8F0812DE9F04105460E461746F5
:1008E000344621E0402000FB045000EB40002F493B
:1008F000085C0104402000FB045000EB4000401C59
:100900002A4A105C01EB0021402000FB045000EB60
:100910004000801C105C01EB0008424661B268B2E6
:10092000FFF748FF601CC4B2BC42DBDBBDE8F081CE
:1009300070B502461346002125E0002020E0402447
:1009400004FB010404EB4404184D2C5D25044024F1
:1009500004FB010404EB4404641C144E345D05EBF9
:100960000425402404FB010404EB4404A41C345D6E
:100970002C44402505FB0105084E46F82540401C47
:100980004028DCD3491C2029D7D370BD0008014082
:10099000000C014094812142A8012142380000202E
:1009A0000080214200002142C84C0008704D000820
:1009B00008B501214FF4017001F006F90120ADF8EE
:1009C000000000208DF803006946654800F040FEF5
:1009D00008BD00B587B00121084601F002F960208A
:1009E000ADF814004720ADF810000020ADF8160057
:1009F000ADF8120004A94FF0804001F08FFC602098
:100A0000ADF800000120ADF802003020ADF806007E
:100A10000220ADF808006946400701F0FEFC07B06F
:100A200000BD00B58DB00121084601F0C0F84D4869
:100A300002F0D6FC4C4802904C48039000200490F1
:100A40004FF48070059000200690802007904000B1
:100A50000890C000099020200A9000020B9000200E
:100A60000C900B208DF8040000208DF805008DF807
:100A7000060001208DF8070001A801F012FB02A971
:100A8000384802F04FFD01220221364802F081FD74
:100A90000DB000BD00B585B0FFF78AFFFFF799FFE5
:100AA000FFF7BFFF002000908DF804008DF80500CF
:100AB0004FF4C02002900020039001208DF8100018
:100AC000694629484C3802F08AFA00230122194667
:100AD00025484C3802F01BFB012123484C3802F01A
:100AE00072FB012120484C3802F0B0FA01211E4867
:100AF0004C3802F0A0FA1C484C3802F0BEFA00BF95
:100B000019484C3802F0BEFA0028F9D116484C3882
:100B100002F0C2FA00BF14484C3802F0C2FA0028B2
:100B2000F9D10121880701F055FF01210D4802F09C
:100B300024FD05B000BD10B5022002F058FD68B1DB
:100B400001200B4908700B48006808B9012000E03B
:100B5000002008490860022002F05DFD10BD000081
:100B600000080140080002404C24014038200020C9
:100B700000000020B40122422DE9FE4F064600206D
:100B80000290002446E06C4830F824000FFA80FA06
:100B9000694850F82400000C0FFA80F90AFB0AF1AA
:100BA00009FB091003F01DFC074603F05DF9CDE9D0
:100BB000000103F07FF983464FF08041584603F06F
:100BC00035FF074603F012FF5C4941F82400084650
:100BD00050F82410029808440290002516E0584866
:100BE00050F82500554951F8241088420BD253483B
:100BF00050F82410524A681C52F82000814202D258
:100C00005048055500E000BF681CC5B2202DE6DB4A
:100C1000601C84B206EBD671B4EB610FB3DB002429
:100C20004648808800044549898B89B200EB012041
:100C3000424991F83410084440490860BDE8FE8FED
:100C40002DE9F0478CB04FF0000A00BF58E00020BB
:100C50003D4941F82A00504603F0DAFB3B4A3C4B41
:100C6000CDE9020103F0E8FB80460022394B03F096
:100C7000E3FB064600224FF0814303F0FDF90446F2
:100C800003F0A2F800224FF08143CDE9040103F004
:100C9000D3FBCDE90801504603F0BAFB2B4A2C4B9D
:100CA000CDE9000103F0C8FB064600224FF0804367
:100CB00003F0C2FB00224FF08143CDE9020103F0B3
:100CC000DBF9CDE9040103F07FF804460022224B52
:100CD00003F0B2FB804600221F4B03F01DF9CDE963
:100CE0000601DDE9082303F017F9CDE90A0103F055
:100CF0004BFB154941F82A000AF101001FFA80FA5E
:100D0000BAF1FF0FA3DD4FF480720F490A4800F0DB
:100D10004FF94FF48070FFF72FFF0CB0BDE8F0875C
:100D200010B54FF480720849034800F041F94FF4C0
:100D30008070FFF721FF10BD3824002038280020E4
:100D4000EC4C0008382A0020382000201C2D445488
:100D5000FB211940000032400000904010B56FF0B8
:100D6000040001F0E8F92E4800682E49B0FBF1F0CC
:100D70002D4908700846007800EB4001C1EBC01017
:100D80004FF6FF7101EAC0002849088010BD0146F6
:100D9000254A12784A434FF0E0235A6100229A61B3
:100DA0001A46126942F001021A6100BF4FF0E022B8
:100DB000106900F001021AB100F48032002AF5D067
:100DC0004FF0E022126922F001024FF0E0231A6195
:100DD00000229A6170470146144A12884A434FF034
:100DE000E0235A6100229A611A46126942F0010218
:100DF0001A6100BF4FF0E022106900F001021AB141
:100E000000F48032002AF5D04FF0E022126922F07F
:100E100001024FF0E0231A6100229A61704700003E
:100E20000400002000127A00180000201A000020A0
:100E3000014600BF704700BF494A128802F04002D5
:100E4000002AF9D0C2B2464B1B1D1A80704710B55C
:100E500086B00446012144F2040000F0B5FE4FF4D0
:100E60000070ADF8140003208DF8160018208DF8DE
:100E7000170005A93B4800F0EBFB4FF48060ADF88C
:100E8000140004208DF8170005A9364800F0E0FB97
:100E900025208DF8000003208DF801008DF8020058
:100EA00001208DF80300684601F0FBF80194002052
:100EB000ADF80800ADF80A00ADF80C00ADF8100070
:100EC0000C20ADF80E0001A9254800F024FF0122F6
:100ED00040F22551224800F0B6FF0121204800F0E1
:100EE000A6FF06B010BD10B540F225511C4801F018
:100EF0008FF810B31A4801F00BF8C4B21A480088F2
:100F000000F40040C8B91848008800F4804060B17F
:100F10000A2C03D000201449088020E012480088E1
:100F200040F400401049088019E00D2C06D10E480D
:100F3000008840F480400C49088010E00A4800888E
:100F4000C0F30D0009490C5407480088401C0649AD
:100F5000088008460088C72801DD0020088010BDF1
:100F6000003801400008014020000020382B0020FC
:100F70000948804709480047FEE7FEE7FEE7FEE72D
:100F8000FEE7FEE7FEE7FEE7FEE7FEE70448054969
:100F9000054A064B704700009F0400083101000815
:100FA000602C002060320020602E0020602E002087
:100FB0002DE9F04F4FF0000C4FF0000301EB1C6ED9
:100FC000BEF90250BEF900400EF5807EBEF90290D7
:100FD000BEF900800EF5807EBEF90270BEF9006099
:100FE0000EF5807EBEF902B0BEF900A00EF5807E3F
:100FF000D044D944A8EB4A0AA9EB4B0B4FEAA4040E
:101000004FEAA50504EBA60405EBA705A4EB6606CD
:10101000A5EB670704EBA80405EBA905A4EB68089A
:10102000A5EB690906EBAB06A7EBAA07A6EB6B0BD2
:1010300007EB6A0A458020F8044B478020F8046BD0
:10104000A0F8029020F8048BA0F802A020F804BBBE
:1010500003F1010393FAA3FC402BAFD1A0EB820173
:101060004FF0100312090FF2361000F1000006B421
:1010700003EB430C6144A2F5803202EB8332B1F9F9
:101080000250B1F90040A1EB0301B0F902B0B0F990
:1010900000A000F10400A5EB040E0EFB0BFC0AEB14
:1010A0004B0E05FB0ACB04FB0ECAB1F90250B1F995
:1010B0000040A1EB0301B0F90290B0F9008000F10B
:1010C0000400A5EB040E0EFB09FC08EB490E05FB22
:1010D00008C904FB0EC8B1F90250B1F90040A1EBF8
:1010E0000301B0F90270B0F9006000F10400A5EB53
:1010F000040E0EFB07FC06EB470E05FB06C704FBC0
:101100000EC6B1F90250B1F9004001F10001D0441E
:10111000D944A8EB4A0AA9EB4B0B4FEAA4044FEAC7
:10112000A50504EB264405EB2745A4EBE636A5EB25
:10113000E73704EB284405EB2945A4EBE838A5EB99
:10114000E93906EB2B46A7EB2A47A6EBEB3B07EB6F
:10115000EA3A4D800C8019444F800E801944A1F862
:101160000290A1F800801944A1F802A021F804BB64
:10117000B2F5803283DA03EB430C6144A2F1010241
:101180005FEA024E18BFA0EB0C007FF476AF06BCFE
:101190004FEA830392087FF46AAFBDE8F08F004006
:1011A000000000400000004000005DDD213BA32264
:1011B0007E180000412D7EA5412D0000412D00C06C
:1011C00000405DDD82E75DDD213B7EA5412D0040D5
:1011D00000000040000000400000AA2A94126B3971
:1011E000460649327C0CA8118E2349327C0CA3227E
:1011F0007E1821F77931AA2A9412A8118E235DDD79
:10120000213BA3227E180000412D95C6B13F461A0E
:101210002B1E58EE3735BEB4C53EA8118E235DDDBA
:10122000213B63A97138DF089A28B7CDC53E7EA55A
:10123000412D0000412D00C0004063A92B1E21F765
:101240007931BEB4C53EBEB47C0C58EE373561ACC6
:10125000213B95C6BAF9BAE571383BA737355DDD54
:1012600082E75DDD213B7EA5412D21F766D756D56E
:101270003F3D3BA78E23A811C9CAB7CDC53E61AC7F
:101280007E18AA2AC1C295C6B13FBEB47C0C0040EC
:10129000000000400000004000001E3BB504693E15
:1012A0009201C83C2403EB356409C83C24036B3924
:1012B00046066C30060E1E3BB504EB356409AA2ABF
:1012C00094126B39460649327C0CAE240917AF37AD
:1012D000D607882E8D0F7E1E5D1BEB356409AA2A6A
:1012E000941224188C1F1E34F10AB3269015A811ED
:1012F0008E2349327C0CA3227E18140B60276C309D
:10130000060E7E1E5D1B7104FB2A882E8D0F461A69
:101310002B1EC7FD5A2E9D2C1211FE15E72021F71A
:101320007931AA2A9412A8118E2387F05334B22857
:101330001314480D202602EAE536B3269015DF087F
:101340009A289CE32B39AE2409177104FB2A5DDD32
:10135000213BA3227E180000412D4ED7C53C93208F
:10136000EF198FFB6C2F78D1153E7E1E5D1B21F788
:101370007931E2CB0F3F641CC61CB8F2683395C6C6
:10138000B13F461A2B1E58EE373597C1FB3F241844
:101390008C1F02EAE536F0BCEC3FFE15E720BAE50B
:1013A0007138A6B8853FD5133D2282E1DB39BEB442
:1013B000C53EA8118E235DDD213B40B1AF3D790FC5
:1013C000DA244DD9423C2EAE423C480D202656D55B
:1013D0003F3D8EAB823A140B602778D1153E63A94E
:1013E0007138DF089A28B7CDC53EB1A71236A906D5
:1013F000CE2915CA4F3F78A668337104FB2A95C6DB
:10140000B13FBCA576303902212C38C3EC3F7EA514
:10141000412D0000412D00C00040BCA5CE29C7FDD4
:101420005A2EF0BCEC3F78A620268FFB6C2F09BA11
:10143000B13FB1A73D2257F976304DB74F3F63A971
:101440002B1E21F77931BEB4C53E8EABEF19ECF4FB
:1014500074325EB2153E2EAE9015B8F268332DB0E0
:101460003F3D40B1121187F053342EAE423CBEB422
:101470007C0C58EE373561AC213BA6B8D6072BEC77
:101480001236C8AADB39F0BC240302EAE53663A9A8
:10149000713897C16EFEDCE7B03734A8E53695C6E3
:1014A000BAF9BAE571383BA73735E2CB0FF59CE3C3
:1014B0002B3978A6683378D173F082E1DB39EDA55A
:1014C00079314ED7EDEB6DDF823A99A56C2F5DDD5A
:1014D00082E75DDD213B7EA5412D9CE33AE352DBB3
:1014E000B63B99A5FB2A02EA19DF4DD9423CEDA58E
:1014F0009A2887F026DB4ED7C53C78A6202621F710
:1015000066D756D53F3D3BA78E23C7FDDFD363D3B8
:10151000AF3D34A8E720710494D078D1153E63A97B
:101520002B1E140B8CCD94CF723EC8AA5D1BA81144
:10153000C9CAB7CDC53E61AC7E18241850C8E2CBED
:101540000F3F2EAE90157E1E25C615CA4F3F2DB0FB
:101550009412AE244AC451C8853F5EB28D0FAA2AA8
:10156000C1C295C6B13FBEB47C0C6C308EC1E2C422
:10157000D43F4DB76409EB35B1C038C3EC3F09BA6D
:1015800046061E3B2CC097C1FB3FF0BC2403000065
:1015900010B50446CC48844208D10121042000F053
:1015A0002DFB0021042000F029FB46E0C7488442BF
:1015B00008D10121082000F021FB0021082000F0C3
:1015C0001DFB3AE0C248844208D10121102000F0FE
:1015D00015FB0021102000F011FB2EE0BD488442D5
:1015E00008D10121202000F009FB0021202000F07B
:1015F00005FB22E0B848844208D10121402000F0D8
:10160000FDFA0021402000F0F9FA16E0B3488442C8
:1016100008D10121802000F0F1FA0021802000F0A3
:10162000EDFA0AE0AE48844207D10121801500F0AE
:10163000E5FA0021A01500F0E1FA10BD10B5012176
:10164000084600F0DBFA0021012000F0D7FA10BDB7
:101650002DE9F04102460025002600200023002449
:10166000002791F803C00CF00F0591F803C00CF0AF
:10167000100CBCF1000F03D091F802C04CEA050534
:1016800091F800C0BCF1000F31D0146800202BE0AD
:101690004FF0010C0CFA00F3B1F800C00CEA03069D
:1016A0009E4220D183004FF00F0C0CFA03F7BC438D
:1016B00005FA03FC4CEA040491F803C0BCF1280FBE
:1016C00006D14FF0010C0CFA00FCC2F814C00AE07D
:1016D00091F803C0BCF1480F05D14FF0010C0CFA92
:1016E00000FCC2F810C0401C0828D1D31460B1F827
:1016F00000C0BCF1FF0F34DD546800202EE000F183
:10170000080C4FF0010808FA0CF3B1F800C00CEA1D
:1017100003069E4221D183004FF00F0C0CFA03F711
:10172000BC4305FA03FC4CEA040491F803C0BCF185
:10173000280F05D100F1080C08FA0CF8C2F8148043
:1017400091F803C0BCF1480F07D100F1080C4FF02D
:10175000010808FA0CF8C2F81080401C0828CED303
:101760005460BDE8F0814FF6FF7101800221817065
:101770000421C17070470246002093680B400BB1F2
:10178000012000E0002070470146886880B2704761
:1017900002460020D3680B400BB1012000E000207E
:1017A00070470146C86880B2704701617047416167
:1017B00070470AB1016100E041617047C160704744
:1017C0004FF480320A438261816182618269826959
:1017D000704702460020434B18684FF6807318404C
:1017E00040EA021008433F4B186070473E49C86109
:1017F0007047F0B50A46002300240021002500F0C0
:101800000046B6F1004F02D1364EF16901E0354E87
:101810007168C0F3034583B200F44016B6F5401F6B
:1018200008D121F070612F4E766826F070662D4F3A
:101830007E6012E000F48016B6F5801F06D1032604
:1018400006FA05F4A14341F0706106E0460D360149
:1018500003FA06F6B14341F0706122B1460D36013C
:1018600003FA06F6314300F00046B6F1004F02D10C
:101870001C4EF16101E01B4E7160F0BD30B50022DD
:101880008B071C0F0F2303FA04F2164B08338C103E
:1018900053F824309343134C08348D1044F825300A
:1018A00023468C1053F824308C07240F00FA04F4DC
:1018B00023430C4C08348D1044F8253030BD0A49C0
:1018C000DC3108607047000000080140000C014056
:1018D000001001400014014000180140001C0140AC
:1018E000002001400000014000002042DF48006865
:1018F00040F00100DD49086008464068DC490840C6
:10190000DA49486008460068DA490840D749086063
:101910000846006820F4802008600846406820F4EB
:10192000FE0048604FF41F0088607047CF49096887
:1019300021F48031CD4A11601146096821F48021DB
:101940001160B0F5803F03D0B0F5802F0ED106E0D6
:10195000C649096841F48031C44A116007E0C349AF
:10196000096841F4A021C14A116000E000BF00BF36
:10197000704710B501460022002300204A11012AB9
:1019800002D1BA4C236806E0022A02D1B74C236A7E
:1019900001E0B64C636A01F01F02012494401C4030
:1019A0000CB1012000E0002010BD38B500200090EF
:1019B0000024002500BF3120FFF7DBFF054600981B
:1019C000401C00900098B0F5A06F01D0002DF2D01F
:1019D0003120FFF7CEFF08B1012400E000242046AB
:1019E00038BD01460020A14A106820F0F80040EA06
:1019F000C10010607047A04908607047024600208F
:101A00009A4B586820F47C1042EA01031843974B24
:101A10005860704798490866704701460020934A0D
:101A2000506820F003000843506070478F484068BA
:101A300000F00C007047014600208C4A506820F0EE
:101A4000F00008435060704701460020874A506804
:101A500020F4E06008435060704701460020834A4C
:101A6000506820F4605040EAC1005060704729B1CE
:101A70007E4A527A02437D4B5A7204E07B4A527A84
:101A800082437A4B5A7270477B49D831086070475D
:101A900001460020754A506820F4404008435060D9
:101AA00070470021714A20321170704A82F820106C
:101AB000012802D004280AD104E001216B4A203217
:101AC000117005E00521694A2032117000E000BF65
:101AD00000BF70476949086070476449096A01435B
:101AE000624A11627047654944390860704730B5F1
:101AF00000210022002400235C4D6D6805F00C01DC
:101B000021B1042905D0082923D105E05C4D0560E9
:101B100022E05B4D05601FE0544D6D6805F47012C6
:101B2000524D6D6805F48034022505EB92421CB9D4
:101B3000544D554305600BE04C4D6D6805F4003580
:101B40001DB1504D5543056002E04D4D55430560B4
:101B500002E04B4D056000BF00BF444D6D6805F0CD
:101B6000F0010909484D6B5C0568DD4045603F4D5B
:101B70006D6805F4E061090A434D6B5C4568DD4022
:101B800085603A4D6D6805F46051C90A3E4D6B5C45
:101B90004568DD40C560354D6D6805F44041890BF1
:101BA0003A4D6B5CC568B5FBF3F5056130BD29B1F5
:101BB0002E4A526902432D4B5A6104E02B4A526966
:101BC00082432A4B5A61704729B1284A92690243DD
:101BD000264B9A6104E0254A92698243234B9A611D
:101BE000704729B1214AD2690243204BDA6104E0EF
:101BF0001E4AD26982431D4BDA61704729B11B4AE4
:101C0000D2680243194BDA6004E0184AD268824372
:101C1000164BDA60704729B1144A12690243134B1C
:101C20001A6104E0114A12698243104B1A6170472D
:101C300012494039086070470F49C86470470B4922
:101C4000C87170470948406A40F08070074948628F
:101C5000704701460020054A92680A400AB10120F7
:101C600000E0002070470149887270470010024070
:101C70000000FFF8FFFFF6FE0000424280044242EF
:101C800000127A0000093D002200002032000020EE
:101C900010B50446FB48844209D101218803FFF7AF
:101CA000ADFF00214FF48040FFF7A8FF32E0F64877
:101CB000844209D101214804FFF7ADFF00214FF410
:101CC0000030FFF7A8FF25E0F048844209D1012148
:101CD0008804FFF7A0FF00214FF48020FFF79BFF4F
:101CE00018E0EB48844209D10121C804FFF793FFB3
:101CF00000214FF40020FFF78EFF0BE0E5488442FF
:101D000008D101210805FFF786FF00214FF480105C
:101D1000FFF781FF10BD2DE9F04786B005460E465E
:101D20000024A24600BFA1460027B08900B100BF31
:101D30002F462C8A4CF6FF700440F08804432C8216
:101D4000AC894EF6F3100440B0883189084371899C
:101D500008430443AC81AC8A4FF6FF400440B0898D
:101D60000443AC8201A8FFF7C2FEC648874202D1F5
:101D7000DDF810A001E0DDF80CA0A88900F4004017
:101D800040B10AEBCA0000EB0A1031684900B0FB11
:101D9000F1F807E00AEBCA0000EB0A10316889008D
:101DA000B0FBF1F86420B8FBF0F0040120096421D5
:101DB00001FB1089A88900F4004040B1322000EBFB
:101DC000C900B0FBF1F000F00700044308E0322046
:101DD00000EB09106421B0FBF1F000F00F000443A8
:101DE0002C8106B0BDE8F0874FF416510160002148
:101DF0008180C18001810C21418100218181704756
:101E000010B502460020108A4FF2FF0318400B88DD
:101E10004C8823438C882343CC8823431843108267
:101E200010BD0021018041808180C180704721B1B7
:101E3000828942F40052828104E082894DF6FF7368
:101E40001A4082817047F0B5034600240026002521
:101E5000002040F66A17B94200D100BF1846C1F30E
:101E6000421401F01F06012707FA06F5012C01D1E3
:101E70000C3004E0022C01D1103000E014301AB113
:101E800007682F43076002E00768AF430760F0BDB3
:101E90001AB1838A0B43838202E0838A8B43838255
:101EA0007047028A4FF6F0731A400282028A0A4390
:101EB0000282704782894FF2FF731A4082818289C1
:101EC0000A438281704721B1828942F002028281F5
:101ED00004E082894FF6FD731A4082817047028ABE
:101EE0004FF6DF731A400282028A0A430282704769
:101EF00021B1028A42F48042028204E0028A4BF657
:101F0000FF731A4002827047C1F308028280704753
:101F100001468888C0F308007047818941F00101BB
:101F200081817047028BD2B20283028B42EA012286
:101F300002837047028B02F47F420283028B0A43C2
:101F40000283704721B1828A42F02002828204E03B
:101F5000828A4FF6DF731A408282704721B1828AEB
:101F600042F01002828204E0828A4FF6EF731A4038
:101F70008282704721B1828A42F00802828204E0A4
:101F8000828A4FF6F7731A408282704721B18289A4
:101F900042F40042828103E08289C2F30E02828110
:101FA000704721B1828A42F40062828204E0828A10
:101FB0004FF2FF731A4082827047828A4FF6FB739A
:101FC0001A408282828A0A438282704721B1828AC1
:101FD00042F00202828204E0828A4FF6FD731A40C8
:101FE0008282704702460020B1F5007F00D100BF19
:101FF00013880B400BB1012000E00020704701F472
:102000000072B2F5007F00D100BFCA430280704762
:1020100070B50246002400230025002040F66A1611
:10202000B14200D100BFC1F3421501F01F030126E8
:1020300006FA03F3012D02D19689334006E0022D02
:1020400002D1168A334001E0968A33400C120126F1
:1020500006FA04F41688344013B10CB1012000E0F4
:10206000002070BD10B50022002340F66A14A14282
:1020700000D100BF0A1201249440A3B2DC430480C3
:1020800010BD0000003801400044004000480040FE
:10209000004C00400050004031490143314A11607A
:1020A000704770B5002100230F22C47804B32D4C73
:1020B000246804F4E064C4F5E064210AC1F1040377
:1020C000CA40447804FA03F184781440214309019A
:1020D000254C0678A155047804F01F050124AC4076
:1020E00005786D11AD0005F1E025C5F8004109E066
:1020F000047804F01F050124AC401C4D06787611CD
:1021000045F8264070BD1A4A0A400243154B1B1F72
:102110001A60704739B1134A121D12680243114BFD
:102120001B1D1A6006E00F4A121D126882430D4BF8
:102130001B1D1A607047042808D14FF0E02109697F
:1021400041F004014FF0E022116107E04FF0E0217F
:10215000096921F004014FF0E0221161704700008D
:102160000000FA050CED00E000E400E080E100E092
:1021700080FFFF1F10B50446FE48844208D10121AC
:10218000C014FFF73BFD0021E014FFF737FDC4E06A
:10219000B4F1804F08D101210846FFF73CFD002132
:1021A0000120FFF738FDB8E0F348844208D101214F
:1021B0000220FFF730FD00210220FFF72CFDACE0EC
:1021C000EE48844208D101210420FFF724FD0021BC
:1021D0000420FFF720FDA0E0E948844208D1012156
:1021E0000820FFF718FD00210820FFF714FD94E0F8
:1021F000E448844208D101211020FFF70CFD0021A2
:102200001020FFF708FD88E0DF48844208D1012153
:102210002020FFF700FD00212020FFF7FCFC7CE0E0
:10222000DA48844208D101214014FFF7E7FC00217D
:102230006014FFF7E3FC70E0D548844209D1012126
:10224000C804FFF7DBFC00214FF40020FFF7D6FCA9
:1022500063E0D048844209D101210805FFF7CEFC94
:1022600000214FF48010FFF7C9FC56E0CA488442B1
:1022700009D101214805FFF7C1FC00214FF40010EE
:10228000FFF7BCFC49E0C548844208D10121402049
:10229000FFF7C1FC00214020FFF7BDFC3DE0C04836
:1022A000844208D101218020FFF7B5FC0021802065
:1022B000FFF7B1FC31E0BB48844208D10121801511
:1022C000FFF7A9FC0021A015FFF7A5FC25E0B64803
:1022D000844209D101210804FFF790FC00214FF44A
:1022E0008030FFF78BFC18E0B048844209D101210F
:1022F0004804FFF783FC00214FF40030FFF77EFC19
:102300000BE0AB48844208D101218804FFF776FC3A
:1023100000214FF48020FFF771FC10BD00220288DD
:10232000944B98420ED0994B98420BD0B0F1804F0D
:1023300008D0914B984205D0904B984202D0904BD8
:10234000984204D14FF68F731A404B881A438D4B35
:10235000984207D08C4B984204D04FF6FF431A4066
:10236000CB881A4302808B8883850B880385814B39
:1023700098420BD0854B984208D08B4B984205D0A1
:102380008A4B984202D08A4B984201D10B7A03863D
:1023900001238382704770B5002400220023058C3E
:1023A0004FF6FE7635400584028C8388048B4FF609
:1023B0008F752C40B51E2C400D882C43751E2A406D
:1023C0000D892A434D882A436A4DA8420BD06F4D90
:1023D000A84208D0744DA84205D0744DA84202D03E
:1023E000734DA84213D14FF6F7752A404D892A4301
:1023F0004FF6FB752A408D882A434FF6FF652B4028
:102400004FF6FF552B408D892B43CD892B4383807D
:102410000483CD888586028470BD70B500240022B7
:102420000023058C4FF6EF7635400584028C8388B7
:10243000048B48F6FF752C404FF6FF452C400D8865
:102440004FF6FF7606EA05252C434FF6DF752A4046
:102450000D8906EA05152A434D8806EA05152A4323
:10246000444DA84202D0494DA8421DD14FF67F7578
:102470002A404D894FF6FF7606EA05152A434FF6A6
:10248000BF752A408D8806EA05152A434FF6FF35A9
:102490002B404FF2FF752B408D8906EA85052B43B3
:1024A000CD8906EA85052B4383800483CD88058783
:1024B000028470BD70B5002400220023058C4FF605
:1024C000FF6635400584028C8388848B4FF68F75B8
:1024D0002C404FF6FC752C400D882C434FF6FF55D1
:1024E0002A400D894FF6FF7606EA05252A434D88D6
:1024F00006EA05252A431F4DA84202D0234DA842D3
:102500001DD14FF2FF752A404D894FF6FF7606EA3E
:1025100005252A434FF6FF352A408D8806EA052512
:102520002A434EF6FF752B404DF6FF752B408D89E3
:1025300006EA05152B43CD8906EA05152B43838052
:102540008483CD888587028470BD70B50022002306
:102550000024058C4EF6FF7635400584038C848874
:10256000828B48F6FF752A404FF6FF452A400D88BA
:1025700020E00000002C0140000400400008004062
:10258000000C0040001000400014004000340140E6
:10259000004C014000500140005401400018004030
:1025A000001C004000200040004001400044014069
:1025B000004801404FF6FF7606EA05252A434DF60E
:1025C000FF752B400D8906EA05352B434D8806EA39
:1025D00005352B43FA4DA84202D0FA4DA84208D146
:1025E0004BF6FF752C408D894FF6FF7606EA851570
:1025F0002C4384808283CD88A0F84050038470BD32
:10260000828B4FF2FF331A408283828B4FF6FF7327
:1026100003EA01231A4382837047F0B50C4615463E
:10262000002200210026078C4EF6FF7C07EA0C07EB
:102630000784828B018C4FF6FF7707EA043640F659
:10264000FF473A404FF6FF7707EA05273A434FF630
:10265000FF7707EA03373A43D94FB8420ED0D94F34
:10266000B8420BD0B0F1804F08D0D74FB84205D058
:10267000D64FB84202D0D64FB84206D14DF6FF77BA
:10268000394046F48057394305E047F6FF57394053
:1026900044F48057394382830184F0BD828B4FF626
:1026A000F3731A408283828B0A4382837047F0B5AA
:1026B0000C461546002200210026078C4FF6FF6CC1
:1026C00007EA0C070784828B018C4FF6FF7707EA35
:1026D00004264FF60C773A404FF6FF7707EA0317C8
:1026E0002F433A43B64FB8420ED0B64FB8420BD044
:1026F000B0F1804F08D0B44FB84205D0B34FB842C4
:1027000002D0B34FB84206D14FF6FF57394046F4D6
:102710008077394305E04FF2FF57394044F4807722
:10272000394382830184F0BD028B4FF2FF331A409C
:102730000283028B4FF6FF7303EA01231A430283DD
:102740007047F0B50C461546002200210026078C84
:102750004FF6EF7C07EA0C070784028B018C4FF6DB
:10276000FF7707EA041640F6FF473A404FF6FF7737
:1027700007EA03373A434FF6FF7707EA05273A435C
:102780008F4FB8420ED08F4FB8420BD0B0F1804F70
:1027900008D08D4FB84205D08C4FB84202D08C4F34
:1027A000B84206D14FF6DF77394046F0100739437B
:1027B00005E04FF65F77394044F010073943028354
:1027C0000184F0BD028B4FF6F3731A400283028B33
:1027D0000A4302837047F0B50C46154600220021DB
:1027E000068C4FF6FE773E400684028B018C4FF636
:1027F0000C7632407E1C06EA03162E433243704E9E
:10280000B0420ED06F4EB0420BD0B0F1804F08D026
:102810006D4EB04205D06D4EB04202D06C4EB0420B
:1028200006D14FF6FD76314044F00106314305E014
:102830004FF6F576314044F00106314302830184BE
:10284000F0BD70B505460C465D4885420ED05D482A
:1028500085420BD0B5F1804F08D05B48854205D04A
:102860005A48854202D05A48854200D100E000BF54
:10287000208850B92389A28861882846FFF7ABFFDA
:10288000E1882846FFF79EFF25E0208804280AD12A
:102890002389A28861882846FFF753FFE1882846EC
:1028A000FFF742FF17E0208808280AD12389A28871
:1028B00061882846FFF7FBFEE1882846FFF7EEFE19
:1028C00009E02389A28861882846FFF7A6FEE188EF
:1028D0002846FFF795FE70BD2DE9F04105460C46F0
:1028E00000260127608808B9022600E00026A0889B
:1028F000012801D1022700E001272088A0B92389FF
:10290000A28861882846FFF766FFE1882846FFF71E
:1029100059FF23893A4631462846FFF712FFE188DE
:102920002846FFF701FF13E02389A2886188284623
:10293000FFF707FFE1882846FFF7F6FE23893A46AE
:1029400031462846FFF747FFE1882846FFF73AFF60
:10295000BDE8F0810A884B881A438B881A43CB88DC
:102960001A430B891A434B891A438B891A43A0F8DF
:10297000442070474FF6FF71818000210180C180A3
:102980004180017270470021018041808180C180B7
:10299000018141818181C181704700210180418095
:1029A000012181800021C1800181704700210180C7
:1029B00041808180C1800181418181817047000017
:1029C000002C014000340140000400400008004099
:1029D000000C004021B1028842F00102028004E0B4
:1029E00002884FF6FE731A400280704731B1B0F88A
:1029F000442042F40042A0F8442005E0B0F844200E
:102A0000C2F30E02A0F8442070471AB183890B4329
:102A1000838102E083898B43838170478182704781
:102A200041EA0203A0F8483070471AB183890B438A
:102A3000838102E083898B438381704701894FF64C
:102A4000F8721140018170470A46002101894FF652
:102A50008F73194011430181704730B504460D460C
:102A600029462046FFF7F0FF208940F0070020812B
:102A700030BD2DE9F04104460D4616461F46602D37
:102A800006D13B46012231462046FFF75AFE05E0BB
:102A90003B46012231462046FFF79DFE294620464F
:102AA000FFF7D2FF208940F007002081BDE8F081C8
:102AB00030B50C4600210189C9B24FF6FF7505EA11
:102AC0000325154325432943018130BD2DE9F041FC
:102AD00005460E4617469846002443463A46314678
:102AE0002846FFF7E5FF2C894FF6F870044044F0C4
:102AF00007044FF68F70044044F070042C81BDE849
:102B0000F081F0B504460D4616461F463B46324658
:102B100029462046FFF7CCFF208940F480402081E1
:102B2000F0BD0185828270470A46002101884FF678
:102B30008F731940114301807047F0B50C4615465C
:102B40001E460021002200230189028B038C4FF6D0
:102B5000F877394021434FF6FC473A4040F20117DD
:102B60003A434FF6DD773B404FF6FF7707EA06170B
:102B70002F433B43018102830384F0BD0A460021B9
:102B8000018B4FF68F7319401143018370470A463A
:102B90000021018B48F6FF7319404FF6FF7303EADB
:102BA00002231943018370470A460021818B4FF6A7
:102BB0008F7319401143818370470A460021818B2E
:102BC00048F6FF7319404FF6FF7303EA02231943D7
:102BD0008183704721B1028842F08002028004E0C4
:102BE00002884FF67F731A400280704721B18288B5
:102BF00042F00402828004E082884FF6FB731A40A0
:102C00008280704721B1828842F00802828004E00D
:102C100082884FF6F7731A408280704721B182880C
:102C200042F00102828004E082884FF6FE731A406F
:102C3000828070470A460021018B4FF6F7731940D6
:102C40001143018370470A460021018B4FF2FF7345
:102C500019404FF6FF7303EA0223194301837047BB
:102C60000A460021818B4FF6F77319401143818387
:102C700070470A460021818B4FF2FF7319404FF6CF
:102C8000FF7303EA02231943818370470A46002138
:102C9000018B4FF6FB7319401143018370470A46BD
:102CA0000021018B4FF6FF3319404FF6FF7303EA03
:102CB00002231943018370470A460021818B4FF696
:102CC000FB7319401143818370470A460021818BB1
:102CD0004FF6FF3319404FF6FF7303EA02231943FF
:102CE000818370470A460021018B4FF67F7319409C
:102CF0001143018370470A460021018BC1F30E0185
:102D00004FF6FF7303EA02231943018370470A4613
:102D10000021818B4FF67F731940114381837047E7
:102D20000A460021818BC1F30E014FF6FF7303EABF
:102D300002231943818370470A460021018C4FF614
:102D4000FD7319401143018470470A460021018C2C
:102D50004FF6F77319401143018470470A4600216A
:102D6000018C4FF6DF7319404FF6FF7303EA02132D
:102D70001943018470470A460021018C4FF67F7386
:102D800019404FF6FF7303EA021319430184704799
:102D90000A460021018C4FF6FF5319404FF6FF738E
:102DA00003EA02231943018470470A460021018C7B
:102DB0004FF2FF7319404FF6FF7303EA02231943E2
:102DC000018470470A460021018C4DF6FF731940BB
:102DD0004FF6FF7303EA023319430184704730B59D
:102DE000002301248C40A3B2048C9C430484048CF3
:102DF00002FA01F5ADB22C43048430BD30B5002396
:102E000004248C40A3B2048C9C430484048C02FAF6
:102E100001F5ADB22C43048430BD70B503460020EB
:102E200000241846183001258D40ACB21D8CA543F6
:102E30001D8409B1082909D100EB6100056825F05E
:102E4000700505600568154305600EE00D1FC5F3AC
:102E50004E052844056825F4E045056005684FF6F1
:102E6000FF7606EA02263543056070BD21B102886F
:102E700042F00202028004E002884FF6FD731A401D
:102E80000280704721B1028842F00402028004E00F
:102E900002884FF6FB731A400280704721B1828886
:102EA00042F08002828004E082884FF67F731A40ED
:102EB0008280704702884FF6F7731A4002800288BA
:102EC0000A430280704782884FF68F731A408280CF
:102ED00082880A438280704702894FF6F8731A404D
:102EE000028102890A430281704702894FF67F738B
:102EF0001A40028102890A43028170478184704727
:102F00008185704781867047018770478187704748
:102F1000A0F84010704702884FF6FF431A40028025
:102F200002880A43028070470146888E7047014636
:102F3000088F70470146888F70470146B1F84000FE
:102F400070470146888C70470146088D70470246DD
:102F50000020138A0B400BB1012000E000207047D5
:102F6000CA430282704730B5024600200023002485
:102F7000158A05EA0103958905EA010413B10CB12C
:102F8000012000E0002030BDCA43028270470000EB
:102F900010B50446FA48844208D101214015FEF7D5
:102FA0002DFE00216015FEF729FE17E0F54884424A
:102FB00008D101210015FEF721FE00212015FEF7A2
:102FC0001DFE0BE0F048844208D10121C803FEF742
:102FD00015FE00214FF40040FEF710FE10BD30B585
:102FE0000246002000235068E84C20400D790C6810
:102FF00044EA0524204350609068E54C2040D1E924
:1030000002542C434D7944EA450420439060D06A31
:1030100020F470000C7C641EE4B2234340EA0350A9
:10302000D06230BD00210160017141718160C160D9
:1030300001210174704721B1826842F0010282606F
:1030400003E0826822F001028260704721B1826849
:1030500042F48072826003E0826822F480728260AF
:10306000704710B50023CBB21AB144681C434460CA
:1030700002E044689C43446010BD816841F008014F
:1030800081607047014600208A6802F008020AB198
:10309000012000E000207047816841F00401816058
:1030A0007047014600208A6802F004020AB101203C
:1030B00000E00020704721B1826842F4A0028260E3
:1030C00003E0826822F4A00282607047014600207B
:1030D0008A6802F480020AB1012000E000207047F3
:1030E00010B50A4600210023416821F46041531EB7
:1030F00041EA4331416010BD21B1426842F40062AF
:10310000426003E0426822F4006242607047F0B51A
:1031100004460D4600200021092D11DDE068A5F1CF
:103120000A0606EB4607072606FA07F18843A5F1CB
:103130000A0606EB460603FA06F10843E0600CE0D7
:10314000206905EB4507072606FA07F1884305EBDA
:10315000450603FA06F108432061072A0FDA606B7F
:10316000561E06EB86071F2606FA07F18843561EF1
:1031700006EB860605FA06F10843606322E00D2A95
:103180000FDA206BD61F06EB86071F2606FA07F11B
:103190008843D61F06EB860605FA06F1084320632E
:1031A00010E0E06AA2F10D0606EB86071F2606FA7C
:1031B00007F18843A2F10D0606EB860605FA06F133
:1031C0000843E062F0BD21B1826842F4801282605F
:1031D00003E0826822F48012826070470146C86C66
:1031E00080B2704766484C300068704721B1426831
:1031F00042F48062426003E0426822F480624260EE
:10320000704721B1426842F48052426003E0426854
:1032100022F48052426070470A460021816821F4FE
:10322000E04111438160704721B1826842F400425D
:10323000826003E0826822F400428260704721B11C
:10324000826842F40212826003E0826822F4021271
:1032500082607047014600208A6802F400120AB1B9
:10326000012000E000207047F0B50446154600201C
:1032700000220026092911DDE068A1F10A0707EB09
:10328000470C072707FA0CF29043A1F10A0707EB56
:10329000470703FA07F21043E0600CE0206901EBF6
:1032A000410C072707FA0CF2904301EB410703FAA0
:1032B00007F210432061A06BC0F30156EF1C06F12A
:1032C000010CA7EB0C0707EB870C1F2707FA0CF282
:1032D0009043EF1C06F1010CA7EB0C0707EB8707E7
:1032E00001FA07F21043A063F0BD10B50A460021B1
:1032F0000023816B21F44011531E41EA0351816385
:1033000010BD08B5002300930090009B0B44009370
:10331000009B1A6008BD08B502460020009000928C
:1033200001F12800009B184400900098006880B2CA
:1033300008BD0A4600214168164B194011434160FF
:1033400070474162826270470A460021416821F05D
:103350001F0111434160704740B1094908310968B4
:1033600041F40001064A0832116007E004490831BF
:10337000096821F40001024A083211607047000018
:103380000024014000280140003C0140FFFEF0FF06
:10339000FDF7F1FFFFFD3FFF0246002013680B40E1
:1033A0000BB1012000E000207047CA430260704763
:1033B00070B502460020002300240B125568CEB2DF
:1033C00005EA060415681D4015B10CB1012000E0A6
:1033D000002070BD00220A12D34303607047000032
:1033E00001684FF6FE7211400160002101604160EA
:1033F0008160C1608D49884208D18C49083949688B
:1034000041F00F01894A083A51608AE08749143136
:10341000884208D185490839496841F0F001834A5A
:10342000083A51607DE081492831884208D17F49BE
:103430000839496841F470617C4A083A516070E08B
:103440007A493C31884208D178490839496841F4C1
:103450007041764A083A516063E0744950318842BD
:1034600008D172490839496841F470216F4A083A15
:10347000516056E06D496431884208D16B49083982
:10348000496841F47001694A083A516049E0674966
:103490007831884208D165490839496841F070613E
:1034A000624A083A51603CE06149884206D1011FF6
:1034B000096841F00F01021F116032E05C491431CC
:1034C000884208D15A49091F096841F0F001584A59
:1034D000121F116025E056492831884208D154490D
:1034E000091F096841F47061514A121F116018E008
:1034F0004F493C31884208D14D49091F096841F4C0
:1035000070414B4A121F11600BE04949503188420B
:1035100007D14749091F096841F47021444A121F25
:103520001160704710B50022026847F6F0739A43A5
:103530000C6A8B6823430C6923434C6923438C69D1
:103540002343CC6923434C6A23438C6A23431A43A5
:103550000260CB6843600B6883604B68C36010BD3A
:103560000021016041608160C16001614161816150
:10357000C161016241628162704721B1026842F01B
:103580000102026004E002684FF6FE731A40026016
:1035900070471AB103680B43036002E003688B4372
:1035A00003607047416070470146486880B27047C9
:1035B00001460020002201F080531BB11C4B083B48
:1035C0001A6802E0194B083B1A6802EA01030BB1C2
:1035D000012000E00020704700F0805119B114492B
:1035E000091F086002E01149083948607047014628
:1035F0000020002201F080531BB10D4B083B1A68DC
:1036000002E00A4B083B1A6802EA01030BB10120F1
:1036100000E00020704700F0805119B10449091FF3
:10362000086002E00149083948607047080002401C
:1036300008040240704702F0FF0343EA032242EA13
:10364000024200F038B84FF0000200B5134694462D
:103650009646203922BFA0E80C50A0E80C50B1F1EA
:103660002001BFF4F7AF090728BFA0E80C5048BFFE
:103670000CC05DF804EB890028BF40F8042B08BF9C
:10368000704748BF20F8022B11F0804F18BF00F898
:10369000012B7047704770477047704710B500F0B6
:1036A0002BF8006810BD10B5044600F025F8046042
:1036B00010BD4FF000020429C0F0128010F0030C7E
:1036C0003FF4C3AFCCF1040CBCF1020F18BF00F8FB
:1036D000012BA8BF20F8022BA1EB0C01FFF7B5BF0F
:1036E0005FEAC17C24BF00F8012B00F8012B48BF22
:1036F00000F8012B7047000000487047002C0020A4
:1037000000487047002C00207546FFF7F9FFAE46D1
:1037100005006946534620F00700854618B020B5DD
:10372000FDF734FCBDE820404FF000064FF00007E5
:103730004FF000084FF0000B21F00701AC46ACE859
:10374000C009ACE8C009ACE8C009ACE8C0098D46C6
:1037500070470446AFF300802046FCF730FD490077
:1037600050EAC12018BF04204A0D18BF40F00100E4
:1037700040F2FF72B2EB515F08BF40F00200012837
:1037800008BF0520704700002DE9F74F144694B09C
:103790000021C4E902111599079121F00045C9499A
:1037A0008D4206DC1599C4E9000117B00020BDE880
:1037B000F08FC549DFF814A3A9423CDD0799C44E38
:1037C0000029C44FC44A1599534619DD01F024F865
:1037D000554506D0C14AC24B01F01EF8C4E90001AC
:1037E0000AE04FF0D352BE4B01F016F832463B468A
:1037F00001F012F8C4E9000117B00120BDE8F08F14
:1038000000F08AFB554506D0B44AB54B00F084FB66
:10381000C4E900010AE04FF0D352B14B00F07CFB49
:1038200032463B4600F078FBC4E9000117B04FF088
:10383000FF30BDE8F08FAB49A942159978DB21F044
:10384000004183468846A84AA84B00F0F5FD0022B7
:10385000A74B00F061FB00F067FD099000F0C1FD8F
:1038600006460F469C4A534600F0E6FD43465A463C
:1038700000F0E0FE80468A46984A994B3046394629
:1038800000F0DAFD2A0D01250B924246534600F066
:10389000D1FE032DC4E9000139D00B98C1F30A51C0
:1038A000401A05EB45111139814230DA9148C3467F
:1038B000784400EB0510CDF80CA00C90D0E9002363
:1038C0003046394600F0B8FD02460B46049106909A
:1038D0005846039900F0A0FF80468A4602460B46F0
:1038E0005846039900F098FF049B069A00F094FF55
:1038F00083460C9803913946D0E90223304600F004
:103900009BFD5A46039B00F087FF6D1CBDE707989F
:103910000028A2BF099817B0BDE8F08F616881F058
:1039200000416160099817B04042BDE8F08FFFE7A1
:1039300084461598C1F31301C0F30A50A0F2F53084
:103940004FEA601800F01F06C6F120001390002017
:103950000690079041F4801E05206D4676B1664AB8
:1039600008EB00017A4452F8213002EB8101B340A8
:103970004A68139922FA01F1194305E05F4908EBFF
:103980000002794451F82210A1FB0E27A1FB0C1371
:103990001A449A4234BF0123002303EB070A05EBC4
:1039A0008003D3E901B70F448F4234BF01210021C6
:1039B00093448B4411B1934502D903E0934501D25E
:1039C000012100E00021C3E901B7514445F820106E
:1039D000011EA0F10100C1DC0298059F00F100501A
:1039E000800F12900298DDE90356800000F0F9FC88
:1039F000834628460D9100F00BFD6FF01D0201F08B
:103A000013F9CDE90E01304600F002FD6FF03D02E2
:103A100001F00AF980468A46384600F0F9FC6FF05A
:103A20005D0201F001F9074642465346119100F04C
:103A300073FADDE90E2300F06FFA5A460D9B00F091
:103A40006BFA00250E465A4628460D9B00F0E4FE10
:103A5000DDE90E2300F0E0FE4246534600F0DCFEB6
:103A60003A46119B00F0E6FDDFF898A0244A534641
:103A700000F0E2FC07468846234A244B314628469C
:103A800000F0DAFC3A46434600F046FA074688461C
:103A90004FF0A84253463146284600F0CDFC3A4646
:103AA000434600F039FA159A12F0004F04D0129AEA
:103AB00081F0004152421292C4E90001129817B0FD
:103AC000BDE8F08FFB21E93F7CD90240FB21F93FA3
:103AD0007370032E8A19A33B000040543163621AAD
:103AE00061B4D03DFB21394183C8C96D305FE43FEB
:103AF0000000E03FEC2C0000682C00004A2C000085
:103B0000182D4454FB21F93D3326A611460B113CD8
:103B10002DE9FF4D21F0004807460C46B8F1795FCA
:103B200008DA00F001FC002801BF0020324904B08F
:103B3000BDE8F08D3A4623461046194600F07CFC5D
:103B4000054602462D480E460B460621784400F0F5
:103B50005DF82A46334600F06FFCDDE90223824619
:103B60008B463846214600F067FC04460F46524615
:103B70005B462846314600F05FFC22463B4600F09B
:103B80004BFE07468A464FF0FF322846314601F089
:103B90004BF81B4A90450ADA3A46534600F03CFE81
:103BA00004B00022BDE8F04D134B00F043BD154AB0
:103BB0004245A8BFA8F500154FF00004B8BF124D4C
:103BC00022462B4600F028FE0646884622462B4613
:103BD0000020094900F020FE04460D463A465346AF
:103BE0003046414600F018FE04B022462B46BDE8A0
:103BF000F04D00F01FBD00000000F03F202A000043
:103C00003333D33F0000E93F0000D23F2DE9F041BC
:103C10004F1E00EBC7010446D1E9000115461E46C0
:103C200037F006020DD02A46334600F005FC7F1E11
:103C300004EBC703D3E9002300F06EF937F0060266
:103C4000F1D1022F25D0042F13D0062F18BFBDE8C5
:103C5000F0812A46334600F0EFFBD4E90A2300F056
:103C60005BF92A46334600F0E7FBD4E9082300F06D
:103C700053F92A46334600F0DFFBD4E9062300F06F
:103C80004BF92A46334600F0D7FBD4E9042300F071
:103C900043F92A46334600F0CFFBD4E9022300F073
:103CA0003BF92A46334600F0C7FBD4E90023BDE8C0
:103CB000F04100F031B900002DE9FF4D054621F03B
:103CC000004084B00C46B0F1795F0BDA2846FFF76C
:103CD00046FD042808BF00F06FF8284608B02146CA
:103CE000BDE8F08D2A460B46104600F0A5FB0646BF
:103CF0000F462A46234600F09FFB804626488A4608
:103D000032463B4605217844FFF780FF83461098F2
:103D1000029160B3214A224B4046514600F08CFB91
:103D2000CDE900015A4640465146029B00F084FB13
:103D300082468846DDE906014FF0FF3200F074FF4D
:103D40005246434600F068FD32463B4600F074FBA5
:103D5000DDE9062300F060FDDDE9002300F05CFDF5
:103D600008B02A462346BDE8F04D00F063BC0B4680
:103D70005A463046394600F05FFB084A084B00F0CF
:103D8000CBF84246534600F057FB08B02A4623467C
:103D9000BDE8F04D00F0C0B85E290000495555550A
:103DA0005555C5BF012200F03FBF00221346104603
:103DB000114600F061B90000024A0020110700F02E
:103DC00033BF000001FDFFFF00B5254B21F000428D
:103DD00087B09A4203DC0022134600922BE0214B6D
:103DE0009A4208D140B94FF00100FFF75CFCFFF7A1
:103DF000DCFF07B000BD03DBFFF7D4FF07B000BD59
:103E000002AAFFF7C1FC10F003014FF001000DD032
:103E1000012914D002291AD00DF1080C9CE80F00DA
:103E2000FFF776FE07B081F0004100BD0DF1080CF0
:103E300000909CE80F00FFF73FFF07B000BD0DF1B9
:103E4000080C9CE80F00FFF763FE07B000BD0DF102
:103E5000080C00909CE80F00FFF72EFFE2E700003F
:103E6000FB21E93F0000F07F2DE9F04106460F46B7
:103E700000F0ECFB04000D4618BF0120284320F0A1
:103E80000040C0F17F6000F1E040C00F0ED0301C58
:103E900018BF0120384320F00040C0F17F6000F1DE
:103EA000E040C00F04BF0120FFF7FDFB204629467C
:103EB000BDE8F08121F00042A2F16052B2F5801F0E
:103EC00001F0004328BFD2F17F6C0BD95FEA001CE0
:103ED00043EAC20242EB507018BF704728BF20F07F
:103EE00001007047B2F5801FBCBF184670474FEA0B
:103EF000410C1CF5001F02D2084600F05EBE70B5F2
:103F000000F044FB00000089FFF7F6BF4FF00040CF
:103F1000A0F580007047000010B591EA030F48BF7C
:103F200083F0004300F18084841A71EB030C05D206
:103F3000121943EB0C03001B61EB0C01DFF824E1C9
:103F40004FEA1154A4EB135C1EEA430F18BF9EEA1C
:103F5000445F73D023EA0E03DCF1200E21EA045102
:103F600043F4801332D322FA0CFE10EB0E0023FA36
:103F70000CFE41EB0E01CCF1200E03FA0EFE10EB0D
:103F80000E0051F10001B1F5801FCCF1200E32D2AC
:103F900001EB045112FA0EF2BDE8104058BF704711
:103FA000401C38BF5FEA420218BF7047002814BFA8
:103FB00020F0010041F100014FEA410313F5001F19
:103FC00038BF7047A1F1C04100F02EBB012A43EB7E
:103FD0000302ACF1200CDCF11F0E32BF4FF0000EDB
:103FE00023FA0CF310EB030041EB0451B4EB115F27
:103FF000D0D0A1EB045101F5801149085FEA3000EF
:1040000001EB04510ED350F1000038BF12FA0EFE3E
:1040100008D1BDE81040C9E7401C38BF5FEA420242
:10402000CAD1C3E7BDE810404FEA410313F5001FB2
:1040300038BF7047A1F1C04100F0F6BA9EEA445F74
:1040400008D011EA5E0FBDE8104004BF01F0004146
:1040500000207047BDE8104070B500F097FA00BF2F
:1040600064FBBE3E0000E0FF02494FF0000000F09C
:10407000A9BD00BF0000F87F2DE9C04130B4DFF8D2
:10408000A0C23CEA111418BF3CEA131400F0EC8003
:1040900081EA03051CEA111444EAD57418BF1CEA2E
:1040A000131500F0C780A4EB05044FF0004545EA66
:1040B000C12145EAC32341EA505143EA525304F176
:1040C0007F74994204F500344FEAC0204FEAC222BF
:1040D00008BF904200F09C804FEA13650FF2401633
:1040E000765D4FEA134506FB05F7C7F1807706FBBF
:1040F00007F74FEAD737A7FB03687642C8F5803841
:10410000A7FB06CE38BFA8F1010807FB08E64FF071
:10411000000EA6FB028CE6FB03CEDCF1000CCEF118
:10412000004E38BFAEF1010EA6FB0C584FF0000751
:104130004FF00005E6FB0E87A1FB08C6A0FB07CEEB
:1041400016EB0E0645F10005E1FB076515F1E04EA3
:104150007EBFA4F580345FEA46066D4116F1800704
:1041600045F100054FEA17274FEA066647EA05675B
:10417000A6F1DE46B6F1805F4FEA15251FD9384615
:1041800024F0010C05EBC471BCF1FE6F01EB0C11C6
:1041900002D8F0BCBDE8008124425CBF01F5801E5E
:1041A0009EEAC47F02D4F0BCBDE80081244238D42A
:1041B000F0BCA1F1C041BDE8004100F035BA4FEAC2
:1041C000D22242EA43524FEAD323A7FB02864FEAA8
:1041D000D02040EA415007FB03661EEA0E0F4FEA6B
:1041E000D12105FB026658BFA6EB0056B6EB005680
:1041F0004FEA520E4EEAC37E18EB0E0E56EB530EEC
:10420000BDD518EB02085E417F1C55F10005B6E7ED
:104210004FF480154FF000074FF000064FF00008F4
:10422000ADE7F0BC4FF0000001F1C04101F00041EA
:10423000BDE8008111EA0C1F0CEA131500D00CE058
:1042400013EA0C1F00F025804FF00000F0BC81EA5B
:10425000030101F00041BDE80081F0BCBDE8004170
:1042600081EA030100F0E0B9F0BCBDE8004170B59F
:1042700000F08CF9097EFC3E00F007B881EA0301EA
:104280004FF0000001F00041704781EA030100F0A7
:10429000CBB9F0BCBDE800414FF0000021497047A8
:1042A000FFFDFBF9F7F5F4F2F0EEEDEBE9E8E6E4FB
:1042B000E3E1E0DEDDDBDAD8D7D5D4D3D1D0CFCD82
:1042C000CCCBCAC8C7C6C5C4C2C1C0BFBEBDBCBBBB
:1042D000BAB9B8B7B6B5B4B3B2B1B0AFAEADACABB6
:1042E000AAA9A8A8A7A6A5A4A3A3A2A1A09F9F9E90
:1042F0009D9C9C9B9A999998979796959594939342
:10430000929191908F8F8E8E8D8C8C8B8B8A8989D8
:10431000888887878685858484838382828181805B
:104320000000FF070000F87F4FEA41034FEA5353B4
:10433000A3F58063D3F11E03C8BFD3F1210C0CDDBC
:104340004FF0004242EAC12242EA505232FA03FCE4
:104350008CEAE17CACEBE1707047102BC4BF00200D
:10436000704703F5787CBCF1FF3F04D06FF000424A
:1043700082EA2100704770B500F008F94992248064
:1043800000207047F2E700004FEA1153A3F5806365
:10439000D3F11E03A8BFD3F1200C08DB4FF000427D
:1043A00042EAC12252EA505232FA03F070470942FF
:1043B0000BD4102BC4BF0020704703F5787CBCF1F0
:1043C000FF3F05D04FF0FF3070474FF000007047BF
:1043D00070B500F0DBF800BF4992248000207047E0
:1043E000F0E710F0004248BF4042B0FA80F310FA04
:1043F00003F10AD0C3F11D0303F580634FEA415076
:1044000002EB035202EBD12170474FF000007047DE
:10441000B0FA80F310FA03F10AD0C3F11D0303F5DB
:1044200080634FEA41504FEA035202EBD1217047BB
:104430004FF0000070470000DFF848C170B51CEA7B
:10444000111E1EBF1CEA13159EEA0C0F95EA0C0FF5
:1044500000F06F8081EA030423EA4C134EEAD47E15
:1044600021EA4C1141F4801143F48013AE44A1FBC6
:10447000024CA0FB0365AEF17F7E361955EB0C05AF
:10448000A1FB034C4CF10003A0FB021C16EB0C0635
:10449000654153F10003094218BF46F0010613F4C9
:1044A000007F0BD14FEA03314FEA0530340341EA74
:1044B000155140EA16506FF003020AE04FEAC3219B
:1044C0004FEAC520F40241EA555140EA56506FF0D8
:1044D000020202EB2E4201EB025585EACE710AD0B0
:1044E0005FEA440C18BF24F0004450F1000041F191
:1044F000000120EAD47040F2FE7C624500D270BD1B
:10450000A84214BF4FF080444FF04044002E08BF33
:104510000024BEF1806FA8BFA1F1C041BDE870408A
:1045200080F282804FF0000001F1C04101F00041B3
:1045300070479EEA0C0F0CEA131518BF95EA0C0F92
:1045400006D04FF0000081EA030E0EF0004170BD6E
:1045500000F01CF88900013E00F007B800F009B82F
:104560004FEA430C5FEA5C5C08D081EA030100F08B
:104570005BB84FEA410C5FEA5C5CF6D14FF000009B
:10458000014970470000FF070000F87F0EF1020E9E
:104590002EF0030E5EF8046B364205D4012A43EB7D
:1045A000030515F5001F12D8012841EB010C1CF57D
:1045B000001F0CD80ED14FEAD17C15F5001F0CEB73
:1045C0004C0C0CF1020C08BF4CEBD37C04E04FF018
:1045D000080C01E04FEAD37C0CEB4C0526FA05F6FB
:1045E00006F00706B6F1040C06D20EEB860CBDE809
:1045F00070404CF0010C6047DFE80CF0090B020240
:104600004FF000414FF00000A1F5002170BD1946A8
:104610001046012851EB010418BFD4F5001484BFE3
:10462000002001F0004170BD0808A0F500114FEA1C
:104630003101704791EA030F10B581F000413FF559
:1046400073AC83F0004300F0EFB800002DE9F041B7
:1046500001F5801CBCF5001FC0F2C3804FEA115C5D
:1046600021EA0C510CF1FD0C41F480115FEA5C0C65
:104670000CF5C07C01D3400049413DA4890241EAC8
:10468000905187028E0E0A0CA45D04FB04F602FB17
:1046900006F6C6F14046A4FB0662F60D46EA42263F
:1046A00006FB06F4A4FB01235242C3F1404338BF8A
:1046B0005B1EA6FB02420024E6FB0324D20B42EA67
:1046C0004446A6FB0623A1FB02E2A3FB07E4A418D1
:1046D0004FF0000252F10002E3FB01426442C2F1DA
:1046E000404E38BFAEF1010EA6FB04234FF000028E
:1046F000E6FB0E32A2FB03464FF00004B61954F15C
:104700000004E2FB0264A1FB06E6A4FB07E816EB4B
:1047100008064FF0000858F10008E4FB01687642F3
:10472000C8F1405838BFA8F10108A2FB06E4A3FB7A
:1047300008E52D194FF0000454F10004E2FB085481
:10474000A1FB05E6A7FB04E818EB06084FF00006FE
:1047500056F10006E1FB048618F1200556F100062B
:10476000A809A8F11B08B10908F03F08B8F10A0F21
:1047700040EA86601CD901EB0C51BDE8F08100BF16
:10478000FCF5EEE8E2DDD8D3CFCBC7C3C0BDB9B6E8
:10479000B4B1AEACA9A7A5A3A19F9D9B9A989695ED
:1047A0009392908F8D8C8B89888786858483828174
:1047B000A0FB006800FB01F208EB4208B8EB872879
:1047C00007D5341858EB0104D5D5401C51F1000130
:1047D000D1E7341A78EB0104CDD4401E71F1000109
:1047E000C9E75FEA4C0C5FEA9C5C0DD105D34FF042
:1047F000000001F00041BDE8F081BDE8F04170B576
:10480000FFF7C4FE6DDBFFBEBDE8F0414FF00000D6
:10481000004970470000F87F10B591EA030F48BFC8
:1048200083F000433FF580AB841A71EB030C07D291
:1048300012198CF0004C43EB0C03001B61EB0C01D4
:10484000DFF8A4E14FEA1154A4EB135C1EEA430F16
:1048500018BF9EEA445F00F0B08023EA6E03524224
:1048600021EA0451C3EB6E0338BF5B1EDCF1200E5E
:1048700025D322FA0CFE10EB0E0043FA0CFE41EB9E
:104880000E01CCF1200E03FA0EFE10EB0E0051F1DA
:104890000001CCF1200E29D412FA0EF201EB0451E2
:1048A000BDE8104058BF7047401C1CBFB2F1004F1C
:1048B000704700280CBF491C20F00100704712EB24
:1048C000020E43EB030218BF4FF0010E4EEA420204
:1048D000ACF1200CDCF11E0E54D943FA0CFE10EBA7
:1048E0000E0051F1FF31CCF11E0ED5D50EF1010EA7
:1048F00012FA0EFE404141EB010101EB445C5FEA1C
:104900005C5C10D910EBDE7001EB045138BFBEF1D6
:10491000004FBDE8104018BF704700280CBF491C6D
:1049200020F00100704730D24FEAD42C11F500116D
:1049300024F400641BD0B1FA81F20B3AA41AA41E2D
:10494000D2F12003914030FA03F31943904001EB78
:10495000CC71002C01EB0451BDE81040A8BF70479A
:1049600001F1C0414FF0000001F000417047B0FA82
:1049700080F310FA03F100D110BDE41A173C48058A
:10498000C90AE4E701EB045110BD491001EB0451E1
:10499000BDE810404FEA300002E04FF000017047E0
:1049A0004A0008BF0042F8D0B2F5001F28BF704788
:1049B00001F000414FF0000070479EEA445F07D0CD
:1049C00011EA5E0FBDE8104004BF002100207047CF
:1049D000BDE8104070B5FFF7D9FD00BF40DFF63EDF
:1049E00083F00041104670470000E0FFC10DD1F197
:1049F0009E0206DB4FEA002343F0004323FA02F055
:104A00007047004207D54FEA4001B1F1FE4F02D294
:104A10004FF00000704710B500F089F849922480EB
:104A2000002070476FEA2000704700004FF47F0CB1
:104A30001CEAD0121EBF1CEAD11392EA0C0F93EAB3
:104A40000C0F00F0478090EA010F48BF42F48072DB
:104A50004FF0004C4CEA00204CEA012102EB03022B
:104A6000A0FB0113A2F50002002918BF43F00103C7
:104A70005B0028BF4FEA330342EB22425FEA132C6C
:104A80004CEBC2502EBFBCEB436FB2F57C0F7047AE
:104A90004FEA036CBCF1004F08BF20F00100B2F5F3
:104AA0007C0F38BF70470BD582F0FF0212F5803FB4
:104AB000C8BF704700F1C040D8BF00F00040704749
:104AC00000F5000C5FEA4C0C48BF7047B0F1C040E5
:104AD00000F073B890EA010F0CEAD11348BF42F41A
:104AE0008072624538BF634504D280EA010000F05D
:104AF0000040704710B500F01AF800BF8900013E71
:104B000000F007B800F009B85FEA410C5FEA1C6CDE
:104B100008D080EA010000F050B85FEA400C5FEA7C
:104B20001C6CF6D14FF00040A0F5800070470EF1EC
:104B3000020E2EF0030E5EF8044B244204D44FEA1A
:104B40004102B2F17F4F11D84FEA4003B3F17F4FDA
:104B50000CD80ED14FEAD07CB2F17F4F0CEB4C0C4D
:104B60000CF1020C08BF4CEBD17C04E04FF0080CB8
:104B700001E04FEAD17C0CEB4C0324FA03F404F07F
:104B80000704B4F1040C06D20EEB840CBDE810400F
:104B90004CF0010C6047DFE80CF0070802024FF010
:104BA0000040A0F5800010BD0846420018BFD2F1B9
:104BB000807288BF00F0004010BDFF2141EAD05054
:104BC000C00570470CF00F03092B08BF082000F048
:104BD00059800A2B0BD0082B18BF704708BF1CF058
:104BE000400F0AD04FF000004FF0000170471CF05A
:104BF000400F18BF4FF0004070471CF0100F08D056
:104C000020F0704300F07F4242EAD3014FEA437044
:104C1000704700F0604021F07F4242EA000201F05C
:104C20007F4040EA727070474FF0FF0C4CF4E06C2C
:104C30001CEA11531CBF9CEA030C9445C2BFDA4224
:104C400001EB02517047002B0DD0BCF1000F0FD0CB
:104C5000002A01F00041A4BF41F0E04141F07F6132
:104C60004FF00000704701F000414FF00000704726
:104C700050EA01334FF09B0C18BF4CF0806C7FF46E
:104C8000F3A970471CF4801F11D01CF4E02F03D04F
:104C90006FEACC31490070474FF04050EFF300828B
:104CA00022F0704242EA000282F3008870474FF01F
:104CB0000000704700000100040020008000000197
:104CC0000002000400080000050000000A000000C7
:104CD000140000002800000050000000A0000000A8
:104CE00040010000800200001000000000000000F1
:104CF00006000000090000000C0000000F0000008A
:104D00001200000015000000170000002100000044
:104D10002B000000350000003F00000049000000AB
:104D2000530000005D000000670000007B000000F1
:104D30008F000000A3000000B7000000CB000000BF
:104D4000DF000000F3000000070100002C0100005C
:104D50005E010000C2010000580200005203000082
:104D6000E8030000B0040000C0120000FFFFFFFFD6
:104D7000FF006DFF006DFF006DFF006DFF006DFF18
:104D8000006DFF006DFF006DFF006DFF006DFF0007
:104D90006DFF006DFF006DFF006DFF006DFF006D8A
:104DA000FF006DFF006DFF006DFF006DFF006DFFE8
:104DB000006DFF006DFF006DFF006DFF006DFF00D7
:104DC0006DFF006DFF006DFF006DFF006DFF006D5A
:104DD000FF006DFF006DFF006DFF006DFF006DFFB8
:104DE000006DFF006DFF006DFF006DFF006DFF00A7
:104DF0006DFF006DFF006DFF006DFF006DFF006D2A
:104E0000FF006DFF006DFF006DFF006DFF006DFF87
:104E1000006DFF006DFF006DFF006DFF006DFF0076
:104E20006DFF006DFF006DFF006DFF006DFF006DF9
:104E3000FF006EFF006EFF006EFF006EFF006EFF52
:104E4000006EFF006EFF006EFF006EFF006EFF0041
:104E50006EFF006EFF006EFF006EFF006EFF006EC3
:104E6000FF006EFF006EFF006EFF006EFF006EFF22
:104E7000006EFF006EFF006EFF006EFF006EFF0011
:104E80006EFF006EFF006EFF006EFF006EFF006E93
:104E9000FF006EFF006EFF006EFF006EFF006EFFF2
:104EA000006EFF006EFF006EFF006EFF006EFF00E1
:104EB0006EFF006EFF006EFF006EFF006EFF006E63
:104EC000FF006EFF006EFF006EFF006EFF006EFFC2
:104ED000006EFF006EFF006EFF006EFF006EFF00B1
:104EE0006EFF006EFF006EFF006EFF006EFF006E33
:104EF000FF006DFF006DFF006DFF006DFF006DFF97
:104F0000006DFF006DFF006DFF006DFF006DFF0085
:104F10006DFF006DFF006DFF006DFF006DFF006D08
:104F2000FF006DFF006DFF006DFF006DFF006DFF66
:104F3000006DFF006DFF006DFF006DFF006DFF0055
:104F40006DFF006DFF006DFF006DFF006DFF006DD8
:104F5000FF006DFF006DFF006DFF006DFF006DFF36
:104F6000006DFF006DFF006DFF006DFF006DFF0025
:104F70006DFF006DFF006DFF006DFF006DFF006DA8
:104F8000FF006DFF006DFF006DFF006DFF006DFF06
:104F9000006DFF006DFF006DFF006DFF006DFF00F5
:104FA0006DFF006DFF006DFF006DFF006DFF006D78
:104FB000FC0066FC0066FC0066FC0066FC0066FC0B
:104FC0000066FC0066FC0066FC0066FC0066FC00F7
:104FD00066FC0066FC0066FC0066FC0066FC006681
:104FE000FC0066FC0066FC0066FC0066FC0066FCDB
:104FF0000066FC0066FC0066FC0066FC0066FC00C7
:1050000066FC0066FC0066FC0066FC0066FC006650
:10501000FC0066FC0066FC0066FC0066FC0066FCAA
:105020000066FC0066FC0066FC0066FC0066FC0096
:1050300066FC0066FC0066FC0066FC0066FC006620
:10504000FC0066FC0066FC0066FC0066FC0066FC7A
:105050000066FC0066FC0066FC0066FC0066FC0066
:1050600066FC0066FC0066FC0066FC0066FC0066F0
:10507000F50050F50050F50050F50050F50050F5E2
:105080000050F50050F50050F50050F50050F500C7
:1050900050F50050F50050F50050F50050F5005067
:1050A000F50050F50050F50050F50050F50050F5B2
:1050B0000050F50050F50050F50050F50050F50097
:1050C00050F50050F50050F50050F50050F5005037
:1050D000F50050F50050F50050F50050F50050F582
:1050E0000050F50050F50050F50050F50050F50067
:1050F00050F50050F50050F50050F50050F5005007
:10510000F50050F50050F50050F50050F50050F551
:105110000050F50050F50050F50050F50050F50036
:1051200050F50050F50050F50050F50050F50050D6
:10513000EF0239EF0239EF0239EF0239EF0239EFAE
:105140000239EF0239EF0239EF0239EF0239EF028B
:1051500039EF0239EF0239EF0239EF0239EF023944
:10516000EF0239EF0239EF0239EF0239EF0239EF7E
:105170000239EF0239EF0239EF0239EF0239EF025B
:1051800039EF0239EF0239EF0239EF0239EF023914
:10519000EF0239EF0239EF0239EF0239EF0239EF4E
:1051A0000239EF0239EF0239EF0239EF0239EF022B
:1051B00039EF0239EF0239EF0239EF0239EF0239E4
:1051C000EF0239EF0239EF0239EF0239EF0239EF1E
:1051D0000239EF0239EF0239EF0239EF0239EF02FB
:1051E00039EF0239EF0239EF0239EF0239EF0239B4
:1051F000E70123E70123E70123E70123E70123E791
:105200000123E70123E70123E70123E70123E70166
:1052100023E70123E70123E70123E70123E7012334
:10522000E70123E70123E70123E70123E70123E760
:105230000123E70123E70123E70123E70123E70136
:1052400023E70123E70123E70123E70123E7012304
:10525000E70123E70123E70123E70123E70123E730
:105260000123E70123E70123E70123E70123E70106
:1052700023E70123E70123E70123E70123E70123D4
:10528000E70123E70123E70123E70123E70123E700
:105290000123E70123E70123E70123E70123E701D6
:1052A00023E70123E70123E70123E70123E70123A4
:1052B000E00408E00408E00408E00408E00409E071
:1052C0000408E00408E00408E00408E00409E0043D
:1052D00008E00408E00408E00408E00409E0040829
:1052E000E00408E00408E00408E00409E00408E041
:1052F0000408E00408E00408E00409E00408E0040D
:1053000008E00408E00408E00409E00408E00408F8
:10531000E00408E00408E00409E00408E00408E010
:105320000408E00408E00409E00408E00408E004DC
:1053300008E00408E00409E00408E00408E00408C8
:10534000E00408E00409E00408E00408E00408E0E0
:105350000408E00409E00408E00408E00408E004AC
:1053600008E00409E00408E00408E00408E0040898
:10537000DC1401DD1301DD1301DC1400DD1301DC9D
:105380001400DD1301DD1301DC1400DD1301DC1456
:1053900000DD1301DD1301DC1400DD1301DC14005A
:1053A000DD1301DD1301DC1400DD1301DC1400DD6D
:1053B0001301DD1301DC1400DD1301DC1400DD1327
:1053C00001DD1301DC1400DD1301DC1400DD130129
:1053D000DD1301DC1400DD1301DC1400DD1301DD3D
:1053E0001301DC1400DD1301DC1400DD1301DD13F7
:1053F00001DC1400DD1301DC1400DD1301DD1301F9
:10540000DC1400DD1301DC1400DD1301DD1301DC0D
:105410001400DD1301DC1400DD1301DD1301DC14C5
:1054200000DD1301DC1400DD1301DD1301DC1401C8
:10543000D8360BD8350BD8350BD8360BD8350BD81A
:10544000360BD8350BD8350BD8360BD8350BD836AC
:105450000BD8350BD8350BD8360BD8350BD8360BC7
:10546000D8350BD8350BD8360BD8350BD8360BD8EA
:10547000350BD8350BD8360BD8350BD8360BD8357D
:105480000BD8350BD8360BD8350BD8360BD8350B97
:10549000D8350BD8360BD8350BD8360BD8350BD8BA
:1054A000350BD8360BD8350BD8360BD8350BD8354D
:1054B0000BD8360BD8350BD8360BD8350BD8350B67
:1054C000D8360BD8350BD8360BD8350BD8350BD88A
:1054D000360BD8350BD8360BD8350BD8350BD8361C
:1054E0000BD8350BD8360BD8350BD8350BD8360B37
:1054F000D35313D35313D35313D35313D35313D3BC
:105500005313D35313D35313D35313D35313D3532B
:1055100013D35313D35313D35313D35313D353135B
:10552000D35313D35313D35313D35313D35313D38B
:105530005313D35313D35313D35313D35313D353FB
:1055400013D35313D35313D35313D35313D353132B
:10555000D35313D35313D35313D35313D35313D35B
:105560005313D35313D35313D35313D35313D353CB
:1055700013D35313D35313D35313D35313D35313FB
:10558000D35313D35313D35313D35313D35313D32B
:105590005313D35313D35313D35313D35313D3539B
:1055A00013D35313D35313D35313D35313D35313CB
:1055B000D6731AD6731AD6731AD6731AD6731AD626
:1055C000731AD6731AD6731AD6731AD6731AD67379
:1055D0001AD6731AD6731AD6731AD6731AD6731AC2
:1055E000D6731AD6731AD6731AD6731AD6731AD6F6
:1055F000731AD6731AD6731AD6731AD6731AD67349
:105600001AD6731AD6731AD6731AD6731AD6731A91
:10561000D6731AD6731AD6731AD6731AD6731AD6C5
:10562000731AD6731AD6731AD6731AD6731AD67318
:105630001AD6731AD6731AD6731AD6731AD6731A61
:10564000D6731AD6731AD6731AD6731AD6731AD695
:10565000731AD6731AD6731AD6731AD6731AD673E8
:105660001AD6731AD6731AD6731AD6731AD6731A31
:10567000CC9322CC9223CC9223CC9322CC9223CCD9
:105680009322CC9223CC9223CC9322CC9223CC9302
:1056900022CC9223CC9223CC9322CC9223CC932263
:1056A000CC9223CC9223CC9322CC9223CC9322CCA9
:1056B0009223CC9223CC9322CC9223CC9322CC92D3
:1056C00023CC9223CC9322CC9223CC9322CC922332
:1056D000CC9223CC9322CC9223CC9322CC9223CC79
:1056E0009223CC9322CC9223CC9322CC9223CC92A3
:1056F00023CC9322CC9223CC9322CC9223CC922302
:10570000CC9322CC9223CC9322CC9223CC9223CC48
:105710009322CC9223CC9322CC9223CC9223CC9371
:1057200022CC9223CC9322CC9223CC9223CC9322D2
:10573000CFB22CCFB12CCFB12CCFB22CCFB12CCF3C
:10574000B22CCFB12CCFB12CCFB22CCFB12CCFB249
:105750002CCFB12CCFB12CCFB22CCFB12CCFB22CBF
:10576000CFB12CCFB12CCFB22CCFB12CCFB22CCF0C
:10577000B12CCFB12CCFB22CCFB12CCFB22CCFB11A
:105780002CCFB12CCFB22CCFB12CCFB22CCFB12C8F
:10579000CFB12CCFB22CCFB12CCFB22CCFB12CCFDC
:1057A000B12CCFB22CCFB12CCFB22CCFB12CCFB1EA
:1057B0002CCFB22CCFB12CCFB22CCFB12CCFB12C5F
:1057C000CFB22CCFB12CCFB22CCFB12CCFB12CCFAC
:1057D000B22CCFB12CCFB22CCFB12CCFB12CCFB2B9
:1057E0002CCFB12CCFB22CCFB12CCFB12CCFB22C2F
:1057F000C2CE31C3CE31C3CE31C2CE31C3CE31C21F
:10580000CE31C3CE31C3CE31C2CE31C3CE31C2CE02
:1058100031C3CE31C3CE31C2CE31C3CE31C2CE318F
:10582000C3CE31C3CE31C2CE31C3CE31C2CE31C3ED
:10583000CE31C3CE31C2CE31C3CE31C2CE31C3CED2
:1058400031C3CE31C2CE31C3CE31C2CE31C3CE315F
:10585000C3CE31C2CE31C3CE31C2CE31C3CE31C3BD
:10586000CE31C2CE31C3CE31C2CE31C3CE31C3CEA2
:1058700031C2CE31C3CE31C2CE31C3CE31C3CE312F
:10588000C2CE31C3CE31C2CE31C3CE31C3CE31C28E
:10589000CE31C3CE31C2CE31C3CE31C3CE31C2CE72
:1058A00031C3CE31C2CE31C3CE31C3CE31C2CE31FF
:1058B0008FDA228FD9238FD9238FDA228FD9238FA2
:1058C000DA228FD9238FD9238FDA228FD9238FDA47
:1058D000228FD9238FD9238FDA228FD9238FDA22EF
:1058E0008FD9238FD9238FDA228FD9238FDA228F72
:1058F000D9238FD9238FDA228FD9238FDA228FD918
:10590000238FD9238FDA228FD9238FDA228FD923BD
:105910008FD9238FDA228FD9238FDA228FD9238F41
:10592000D9238FDA228FD9238FDA228FD9238FD9E7
:10593000238FDA228FD9238FDA228FD9238FD9238D
:105940008FDA228FD9238FDA228FD9238FD9238F11
:10595000DA228FD9238FDA228FD9238FD9238FDAB6
:10596000228FD9238FDA228FD9238FD9238FDA225E
:105970005DE5195DE5195DE5195DE5195DE5195D03
:10598000E5195DE5195DE5195DE5195DE5195DE56B
:10599000195DE5195DE5195DE5195DE5195DE51927
:1059A0005DE5195DE5195DE5195DE5195DE5195DD3
:1059B000E5195DE5195DE5195DE5195DE5195DE53B
:1059C000195DE5195DE5195DE5195DE5195DE519F7
:1059D0005DE5195DE5195DE5195DE5195DE5195DA3
:1059E000E5195DE5195DE5195DE5195DE5195DE50B
:1059F000195DE5195DE5195DE5195DE5195DE519C7
:105A00005DE5195DE5195DE5195DE5195DE5195D72
:105A1000E5195DE5195DE5195DE5195DE5195DE5DA
:105A2000195DE5195DE5195DE5195DE5195DE51996
:105A300027F50627F50627F50627F50627F5062795
:105A4000F50627F50627F50627F50627F50627F5B7
:105A50000627F50627F50627F50627F50627F50696
:105A600027F50627F50627F50627F50627F5062765
:105A7000F50627F50627F50627F50627F50627F587
:105A80000627F50627F50627F50627F50627F50666
:105A900027F50627F50627F50627F50627F5062735
:105AA000F50627F50627F50627F50627F50627F557
:105AB0000627F50627F50627F50627F50627F50636
:105AC00027F50627F50627F50627F50627F5062705
:105AD000F50627F50627F50627F50627F50627F527
